{
  "contractName": "InsuranceNFT",
  "abi": [
    {
      "inputs": [
        {
          "internalType": "address",
          "name": "_verifyAddress",
          "type": "address"
        },
        {
          "internalType": "address payable",
          "name": "_DAOAddress",
          "type": "address"
        }
      ],
      "stateMutability": "nonpayable",
      "type": "constructor"
    },
    {
      "anonymous": false,
      "inputs": [
        {
          "indexed": true,
          "internalType": "address",
          "name": "owner",
          "type": "address"
        },
        {
          "indexed": true,
          "internalType": "address",
          "name": "approved",
          "type": "address"
        },
        {
          "indexed": true,
          "internalType": "uint256",
          "name": "tokenId",
          "type": "uint256"
        }
      ],
      "name": "Approval",
      "type": "event"
    },
    {
      "anonymous": false,
      "inputs": [
        {
          "indexed": true,
          "internalType": "address",
          "name": "owner",
          "type": "address"
        },
        {
          "indexed": true,
          "internalType": "address",
          "name": "operator",
          "type": "address"
        },
        {
          "indexed": false,
          "internalType": "bool",
          "name": "approved",
          "type": "bool"
        }
      ],
      "name": "ApprovalForAll",
      "type": "event"
    },
    {
      "anonymous": false,
      "inputs": [
        {
          "indexed": true,
          "internalType": "address",
          "name": "_to",
          "type": "address"
        },
        {
          "indexed": true,
          "internalType": "string",
          "name": "_tokenURI",
          "type": "string"
        }
      ],
      "name": "NFTMinted",
      "type": "event"
    },
    {
      "anonymous": false,
      "inputs": [
        {
          "indexed": true,
          "internalType": "address",
          "name": "previousOwner",
          "type": "address"
        },
        {
          "indexed": true,
          "internalType": "address",
          "name": "newOwner",
          "type": "address"
        }
      ],
      "name": "OwnershipTransferred",
      "type": "event"
    },
    {
      "anonymous": false,
      "inputs": [
        {
          "indexed": false,
          "internalType": "address",
          "name": "_caller",
          "type": "address"
        },
        {
          "indexed": false,
          "internalType": "uint256",
          "name": "_value",
          "type": "uint256"
        }
      ],
      "name": "ReceiveCalled",
      "type": "event"
    },
    {
      "anonymous": false,
      "inputs": [
        {
          "indexed": true,
          "internalType": "address",
          "name": "from",
          "type": "address"
        },
        {
          "indexed": true,
          "internalType": "address",
          "name": "to",
          "type": "address"
        },
        {
          "indexed": true,
          "internalType": "uint256",
          "name": "tokenId",
          "type": "uint256"
        }
      ],
      "name": "Transfer",
      "type": "event"
    },
    {
      "inputs": [
        {
          "internalType": "address",
          "name": "to",
          "type": "address"
        },
        {
          "internalType": "uint256",
          "name": "tokenId",
          "type": "uint256"
        }
      ],
      "name": "approve",
      "outputs": [],
      "stateMutability": "nonpayable",
      "type": "function"
    },
    {
      "inputs": [
        {
          "internalType": "address",
          "name": "owner",
          "type": "address"
        }
      ],
      "name": "balanceOf",
      "outputs": [
        {
          "internalType": "uint256",
          "name": "",
          "type": "uint256"
        }
      ],
      "stateMutability": "view",
      "type": "function",
      "constant": true
    },
    {
      "inputs": [],
      "name": "currentTokenIdMax",
      "outputs": [
        {
          "internalType": "uint256",
          "name": "",
          "type": "uint256"
        }
      ],
      "stateMutability": "view",
      "type": "function",
      "constant": true
    },
    {
      "inputs": [
        {
          "internalType": "uint256",
          "name": "tokenId",
          "type": "uint256"
        }
      ],
      "name": "getApproved",
      "outputs": [
        {
          "internalType": "address",
          "name": "",
          "type": "address"
        }
      ],
      "stateMutability": "view",
      "type": "function",
      "constant": true
    },
    {
      "inputs": [
        {
          "internalType": "address",
          "name": "owner",
          "type": "address"
        },
        {
          "internalType": "address",
          "name": "operator",
          "type": "address"
        }
      ],
      "name": "isApprovedForAll",
      "outputs": [
        {
          "internalType": "bool",
          "name": "",
          "type": "bool"
        }
      ],
      "stateMutability": "view",
      "type": "function",
      "constant": true
    },
    {
      "inputs": [
        {
          "internalType": "address",
          "name": "",
          "type": "address"
        }
      ],
      "name": "lastBlockNumberUpdate",
      "outputs": [
        {
          "internalType": "uint256",
          "name": "",
          "type": "uint256"
        }
      ],
      "stateMutability": "view",
      "type": "function",
      "constant": true
    },
    {
      "inputs": [
        {
          "internalType": "address",
          "name": "",
          "type": "address"
        }
      ],
      "name": "lastTimeStampNFTUsed",
      "outputs": [
        {
          "internalType": "uint256",
          "name": "",
          "type": "uint256"
        }
      ],
      "stateMutability": "view",
      "type": "function",
      "constant": true
    },
    {
      "inputs": [],
      "name": "name",
      "outputs": [
        {
          "internalType": "string",
          "name": "",
          "type": "string"
        }
      ],
      "stateMutability": "view",
      "type": "function",
      "constant": true
    },
    {
      "inputs": [],
      "name": "owner",
      "outputs": [
        {
          "internalType": "address",
          "name": "",
          "type": "address"
        }
      ],
      "stateMutability": "view",
      "type": "function",
      "constant": true
    },
    {
      "inputs": [
        {
          "internalType": "uint256",
          "name": "tokenId",
          "type": "uint256"
        }
      ],
      "name": "ownerOf",
      "outputs": [
        {
          "internalType": "address",
          "name": "",
          "type": "address"
        }
      ],
      "stateMutability": "view",
      "type": "function",
      "constant": true
    },
    {
      "inputs": [],
      "name": "renounceOwnership",
      "outputs": [],
      "stateMutability": "nonpayable",
      "type": "function"
    },
    {
      "inputs": [
        {
          "internalType": "address",
          "name": "from",
          "type": "address"
        },
        {
          "internalType": "address",
          "name": "to",
          "type": "address"
        },
        {
          "internalType": "uint256",
          "name": "tokenId",
          "type": "uint256"
        }
      ],
      "name": "safeTransferFrom",
      "outputs": [],
      "stateMutability": "nonpayable",
      "type": "function"
    },
    {
      "inputs": [
        {
          "internalType": "address",
          "name": "from",
          "type": "address"
        },
        {
          "internalType": "address",
          "name": "to",
          "type": "address"
        },
        {
          "internalType": "uint256",
          "name": "tokenId",
          "type": "uint256"
        },
        {
          "internalType": "bytes",
          "name": "_data",
          "type": "bytes"
        }
      ],
      "name": "safeTransferFrom",
      "outputs": [],
      "stateMutability": "nonpayable",
      "type": "function"
    },
    {
      "inputs": [
        {
          "internalType": "address",
          "name": "operator",
          "type": "address"
        },
        {
          "internalType": "bool",
          "name": "approved",
          "type": "bool"
        }
      ],
      "name": "setApprovalForAll",
      "outputs": [],
      "stateMutability": "nonpayable",
      "type": "function"
    },
    {
      "inputs": [
        {
          "internalType": "bytes4",
          "name": "interfaceId",
          "type": "bytes4"
        }
      ],
      "name": "supportsInterface",
      "outputs": [
        {
          "internalType": "bool",
          "name": "",
          "type": "bool"
        }
      ],
      "stateMutability": "view",
      "type": "function",
      "constant": true
    },
    {
      "inputs": [],
      "name": "symbol",
      "outputs": [
        {
          "internalType": "string",
          "name": "",
          "type": "string"
        }
      ],
      "stateMutability": "view",
      "type": "function",
      "constant": true
    },
    {
      "inputs": [
        {
          "internalType": "uint256",
          "name": "tokenId",
          "type": "uint256"
        }
      ],
      "name": "tokenURI",
      "outputs": [
        {
          "internalType": "string",
          "name": "",
          "type": "string"
        }
      ],
      "stateMutability": "view",
      "type": "function",
      "constant": true
    },
    {
      "inputs": [
        {
          "internalType": "address",
          "name": "from",
          "type": "address"
        },
        {
          "internalType": "address",
          "name": "to",
          "type": "address"
        },
        {
          "internalType": "uint256",
          "name": "tokenId",
          "type": "uint256"
        }
      ],
      "name": "transferFrom",
      "outputs": [],
      "stateMutability": "nonpayable",
      "type": "function"
    },
    {
      "inputs": [
        {
          "internalType": "address",
          "name": "newOwner",
          "type": "address"
        }
      ],
      "name": "transferOwnership",
      "outputs": [],
      "stateMutability": "nonpayable",
      "type": "function"
    },
    {
      "stateMutability": "payable",
      "type": "receive",
      "payable": true
    },
    {
      "inputs": [
        {
          "internalType": "string",
          "name": "_tokenURI",
          "type": "string"
        },
        {
          "internalType": "uint256",
          "name": "lastTimeStamp",
          "type": "uint256"
        },
        {
          "internalType": "bytes32",
          "name": "r",
          "type": "bytes32"
        },
        {
          "internalType": "bytes32",
          "name": "s",
          "type": "bytes32"
        },
        {
          "internalType": "uint8",
          "name": "v",
          "type": "uint8"
        }
      ],
      "name": "mintTokens",
      "outputs": [],
      "stateMutability": "nonpayable",
      "type": "function"
    },
    {
      "inputs": [
        {
          "internalType": "uint256",
          "name": "_tokenId",
          "type": "uint256"
        },
        {
          "internalType": "string",
          "name": "_newTokenURI",
          "type": "string"
        },
        {
          "internalType": "uint256",
          "name": "lastTimeStamp",
          "type": "uint256"
        },
        {
          "internalType": "bytes32",
          "name": "r",
          "type": "bytes32"
        },
        {
          "internalType": "bytes32",
          "name": "s",
          "type": "bytes32"
        },
        {
          "internalType": "uint8",
          "name": "v",
          "type": "uint8"
        }
      ],
      "name": "updateTokenURI",
      "outputs": [],
      "stateMutability": "nonpayable",
      "type": "function"
    },
    {
      "inputs": [
        {
          "internalType": "address payable",
          "name": "_DAOAddress",
          "type": "address"
        }
      ],
      "name": "setDAOContract",
      "outputs": [],
      "stateMutability": "nonpayable",
      "type": "function"
    },
    {
      "inputs": [
        {
          "internalType": "address",
          "name": "tokenAddress",
          "type": "address"
        }
      ],
      "name": "getTokensByAddr",
      "outputs": [
        {
          "internalType": "uint256[]",
          "name": "",
          "type": "uint256[]"
        }
      ],
      "stateMutability": "view",
      "type": "function",
      "constant": true
    },
    {
      "inputs": [],
      "name": "withdrawToWallet",
      "outputs": [],
      "stateMutability": "nonpayable",
      "type": "function"
    }
  ],
  "bytecode": "0x60806040523480156200001157600080fd5b50604051620043c4380380620043c48339818101604052810190620000379190620003ae565b6040518060400160405280600f81526020017f496f54657820496e737572616e636500000000000000000000000000000000008152506040518060400160405280600581526020017f494f5458490000000000000000000000000000000000000000000000000000008152508160009080519060200190620000bb9291906200024f565b508060019080519060200190620000d49291906200024f565b505050620000f7620000eb6200018160201b60201c565b6200018960201b60201c565b81600a60006101000a81548173ffffffffffffffffffffffffffffffffffffffff021916908373ffffffffffffffffffffffffffffffffffffffff16021790555080600960006101000a81548173ffffffffffffffffffffffffffffffffffffffff021916908373ffffffffffffffffffffffffffffffffffffffff16021790555050506200045a565b600033905090565b6000600760009054906101000a900473ffffffffffffffffffffffffffffffffffffffff16905081600760006101000a81548173ffffffffffffffffffffffffffffffffffffffff021916908373ffffffffffffffffffffffffffffffffffffffff1602179055508173ffffffffffffffffffffffffffffffffffffffff168173ffffffffffffffffffffffffffffffffffffffff167f8be0079c531659141344cd1fd0a4f28419497f9722a3daafe3b4186f6b6457e060405160405180910390a35050565b8280546200025d9062000424565b90600052602060002090601f016020900481019282620002815760008555620002cd565b82601f106200029c57805160ff1916838001178555620002cd565b82800160010185558215620002cd579182015b82811115620002cc578251825591602001919060010190620002af565b5b509050620002dc9190620002e0565b5090565b5b80821115620002fb576000816000905550600101620002e1565b5090565b600080fd5b600073ffffffffffffffffffffffffffffffffffffffff82169050919050565b6000620003318262000304565b9050919050565b620003438162000324565b81146200034f57600080fd5b50565b600081519050620003638162000338565b92915050565b6000620003768262000304565b9050919050565b620003888162000369565b81146200039457600080fd5b50565b600081519050620003a8816200037d565b92915050565b60008060408385031215620003c857620003c7620002ff565b5b6000620003d88582860162000352565b9250506020620003eb8582860162000397565b9150509250929050565b7f4e487b7100000000000000000000000000000000000000000000000000000000600052602260045260246000fd5b600060028204905060018216806200043d57607f821691505b60208210811415620004545762000453620003f5565b5b50919050565b613f5a806200046a6000396000f3fe60806040526004361061014f5760003560e01c80636352211e116100b6578063b88d4fde1161006f578063b88d4fde146104d2578063be24203d146104fb578063c32afb9814610538578063c87b56dd14610561578063e985e9c51461059e578063f2fde38b146105db5761018f565b80636352211e146103c257806370a08231146103ff578063715018a61461043c5780638da5cb5b1461045357806395d89b411461047e578063a22cb465146104a95761018f565b806312c0d1891161010857806312c0d189146102a457806323b872dd146102e15780632c8758171461030a578063425d512a1461033357806342842e0e1461035c5780634fb2c193146103855761018f565b806301ffc9a71461019457806303ba27f6146101d157806306fdde03146101e8578063081812fc14610213578063095ea7b3146102505780631287310e146102795761018f565b3661018f577f64c983f10188c30a885d77970aa5aae9a86e80ef9b459ad33cc620eb5999e07033346040516101859291906125b3565b60405180910390a1005b600080fd5b3480156101a057600080fd5b506101bb60048036038101906101b69190612648565b610604565b6040516101c89190612690565b60405180910390f35b3480156101dd57600080fd5b506101e66106e6565b005b3480156101f457600080fd5b506101fd61076c565b60405161020a9190612744565b60405180910390f35b34801561021f57600080fd5b5061023a60048036038101906102359190612792565b6107fe565b60405161024791906127bf565b60405180910390f35b34801561025c57600080fd5b5061027760048036038101906102729190612806565b610883565b005b34801561028557600080fd5b5061028e61099b565b60405161029b9190612846565b60405180910390f35b3480156102b057600080fd5b506102cb60048036038101906102c69190612861565b6109a1565b6040516102d89190612846565b60405180910390f35b3480156102ed57600080fd5b506103086004803603810190610303919061288e565b6109b9565b005b34801561031657600080fd5b50610331600480360381019061032c9190612a85565b610a19565b005b34801561033f57600080fd5b5061035a60048036038101906103559190612b6c565b610c3d565b005b34801561036857600080fd5b50610383600480360381019061037e919061288e565b610cfd565b005b34801561039157600080fd5b506103ac60048036038101906103a79190612861565b610d1d565b6040516103b99190612c57565b60405180910390f35b3480156103ce57600080fd5b506103e960048036038101906103e49190612792565b610db4565b6040516103f691906127bf565b60405180910390f35b34801561040b57600080fd5b5061042660048036038101906104219190612861565b610e66565b6040516104339190612846565b60405180910390f35b34801561044857600080fd5b50610451610f1e565b005b34801561045f57600080fd5b50610468610fa6565b60405161047591906127bf565b60405180910390f35b34801561048a57600080fd5b50610493610fd0565b6040516104a09190612744565b60405180910390f35b3480156104b557600080fd5b506104d060048036038101906104cb9190612ca5565b611062565b005b3480156104de57600080fd5b506104f960048036038101906104f49190612d86565b6111e3565b005b34801561050757600080fd5b50610522600480360381019061051d9190612861565b611245565b60405161052f9190612846565b60405180910390f35b34801561054457600080fd5b5061055f600480360381019061055a9190612e09565b61125d565b005b34801561056d57600080fd5b5061058860048036038101906105839190612792565b6114fb565b6040516105959190612744565b60405180910390f35b3480156105aa57600080fd5b506105c560048036038101906105c09190612ea0565b61164d565b6040516105d29190612690565b60405180910390f35b3480156105e757600080fd5b5061060260048036038101906105fd9190612861565b6116e1565b005b60007f80ac58cd000000000000000000000000000000000000000000000000000000007bffffffffffffffffffffffffffffffffffffffffffffffffffffffff1916827bffffffffffffffffffffffffffffffffffffffffffffffffffffffff191614806106cf57507f5b5e139f000000000000000000000000000000000000000000000000000000007bffffffffffffffffffffffffffffffffffffffffffffffffffffffff1916827bffffffffffffffffffffffffffffffffffffffffffffffffffffffff1916145b806106df57506106de826117d9565b5b9050919050565b6106ee611843565b73ffffffffffffffffffffffffffffffffffffffff1661070c610fa6565b73ffffffffffffffffffffffffffffffffffffffff1614610762576040517f08c379a000000000000000000000000000000000000000000000000000000000815260040161075990612f2c565b60405180910390fd5b61076a61184b565b565b60606000805461077b90612f7b565b80601f01602080910402602001604051908101604052809291908181526020018280546107a790612f7b565b80156107f45780601f106107c9576101008083540402835291602001916107f4565b820191906000526020600020905b8154815290600101906020018083116107d757829003601f168201915b5050505050905090565b600061080982611901565b610848576040517f08c379a000000000000000000000000000000000000000000000000000000000815260040161083f9061301f565b60405180910390fd5b6004600083815260200190815260200160002060009054906101000a900473ffffffffffffffffffffffffffffffffffffffff169050919050565b600061088e82610db4565b90508073ffffffffffffffffffffffffffffffffffffffff168373ffffffffffffffffffffffffffffffffffffffff1614156108ff576040517f08c379a00000000000000000000000000000000000000000000000000000000081526004016108f6906130b1565b60405180910390fd5b8073ffffffffffffffffffffffffffffffffffffffff1661091e611843565b73ffffffffffffffffffffffffffffffffffffffff16148061094d575061094c81610947611843565b61164d565b5b61098c576040517f08c379a000000000000000000000000000000000000000000000000000000000815260040161098390613143565b60405180910390fd5b610996838361196d565b505050565b600e5481565b600b6020528060005260406000206000915090505481565b6109ca6109c4611843565b82611a26565b610a09576040517f08c379a0000000000000000000000000000000000000000000000000000000008152600401610a00906131d5565b60405180910390fd5b610a14838383611b04565b505050565b610a2286610db4565b73ffffffffffffffffffffffffffffffffffffffff16610a40611843565b73ffffffffffffffffffffffffffffffffffffffff1614610a96576040517f08c379a0000000000000000000000000000000000000000000000000000000008152600401610a8d90613241565b60405180910390fd5b600a60009054906101000a900473ffffffffffffffffffffffffffffffffffffffff1673ffffffffffffffffffffffffffffffffffffffff1663bef688aa610adc611843565b8789888888886040518863ffffffff1660e01b8152600401610b04979695949392919061327f565b602060405180830381600087803b158015610b1e57600080fd5b505af1158015610b32573d6000803e3d6000fd5b505050506040513d601f19601f82011682018060405250810190610b56919061330a565b610b95576040517f08c379a0000000000000000000000000000000000000000000000000000000008152600401610b8c90613383565b60405180910390fd5b610b9f8686611d60565b43600b6000610bac611843565b73ffffffffffffffffffffffffffffffffffffffff1673ffffffffffffffffffffffffffffffffffffffff1681526020019081526020016000208190555083600c6000610bf7611843565b73ffffffffffffffffffffffffffffffffffffffff1673ffffffffffffffffffffffffffffffffffffffff16815260200190815260200160002081905550505050505050565b610c45611843565b73ffffffffffffffffffffffffffffffffffffffff16610c63610fa6565b73ffffffffffffffffffffffffffffffffffffffff1614610cb9576040517f08c379a0000000000000000000000000000000000000000000000000000000008152600401610cb090612f2c565b60405180910390fd5b80600960006101000a81548173ffffffffffffffffffffffffffffffffffffffff021916908373ffffffffffffffffffffffffffffffffffffffff16021790555050565b610d18838383604051806020016040528060008152506111e3565b505050565b6060600d60008373ffffffffffffffffffffffffffffffffffffffff1673ffffffffffffffffffffffffffffffffffffffff168152602001908152602001600020805480602002602001604051908101604052809291908181526020018280548015610da857602002820191906000526020600020905b815481526020019060010190808311610d94575b50505050509050919050565b6000806002600084815260200190815260200160002060009054906101000a900473ffffffffffffffffffffffffffffffffffffffff169050600073ffffffffffffffffffffffffffffffffffffffff168173ffffffffffffffffffffffffffffffffffffffff161415610e5d576040517f08c379a0000000000000000000000000000000000000000000000000000000008152600401610e5490613415565b60405180910390fd5b80915050919050565b60008073ffffffffffffffffffffffffffffffffffffffff168273ffffffffffffffffffffffffffffffffffffffff161415610ed7576040517f08c379a0000000000000000000000000000000000000000000000000000000008152600401610ece906134a7565b60405180910390fd5b600360008373ffffffffffffffffffffffffffffffffffffffff1673ffffffffffffffffffffffffffffffffffffffff168152602001908152602001600020549050919050565b610f26611843565b73ffffffffffffffffffffffffffffffffffffffff16610f44610fa6565b73ffffffffffffffffffffffffffffffffffffffff1614610f9a576040517f08c379a0000000000000000000000000000000000000000000000000000000008152600401610f9190612f2c565b60405180910390fd5b610fa46000611dd4565b565b6000600760009054906101000a900473ffffffffffffffffffffffffffffffffffffffff16905090565b606060018054610fdf90612f7b565b80601f016020809104026020016040519081016040528092919081815260200182805461100b90612f7b565b80156110585780601f1061102d57610100808354040283529160200191611058565b820191906000526020600020905b81548152906001019060200180831161103b57829003601f168201915b5050505050905090565b61106a611843565b73ffffffffffffffffffffffffffffffffffffffff168273ffffffffffffffffffffffffffffffffffffffff1614156110d8576040517f08c379a00000000000000000000000000000000000000000000000000000000081526004016110cf90613513565b60405180910390fd5b80600560006110e5611843565b73ffffffffffffffffffffffffffffffffffffffff1673ffffffffffffffffffffffffffffffffffffffff16815260200190815260200160002060008473ffffffffffffffffffffffffffffffffffffffff1673ffffffffffffffffffffffffffffffffffffffff16815260200190815260200160002060006101000a81548160ff0219169083151502179055508173ffffffffffffffffffffffffffffffffffffffff16611192611843565b73ffffffffffffffffffffffffffffffffffffffff167f17307eab39ab6107e8899845ad3d59bd9653f200f220920489ca2b5937696c31836040516111d79190612690565b60405180910390a35050565b6111f46111ee611843565b83611a26565b611233576040517f08c379a000000000000000000000000000000000000000000000000000000000815260040161122a906131d5565b60405180910390fd5b61123f84848484611e9a565b50505050565b600c6020528060005260406000206000915090505481565b600a60009054906101000a900473ffffffffffffffffffffffffffffffffffffffff1673ffffffffffffffffffffffffffffffffffffffff1663bef688aa6112a3611843565b876000888888886040518863ffffffff1660e01b81526004016112cc9796959493929190613578565b602060405180830381600087803b1580156112e657600080fd5b505af11580156112fa573d6000803e3d6000fd5b505050506040513d601f19601f8201168201806040525081019061131e919061330a565b61135d576040517f08c379a000000000000000000000000000000000000000000000000000000000815260040161135490613383565b60405180910390fd5b60006113696008611ef6565b6113736008611f0c565b9050611386611380611843565b82611f1a565b6113908187611d60565b43600b600061139d611843565b73ffffffffffffffffffffffffffffffffffffffff1673ffffffffffffffffffffffffffffffffffffffff16815260200190815260200160002081905550600d60006113e7611843565b73ffffffffffffffffffffffffffffffffffffffff1673ffffffffffffffffffffffffffffffffffffffff16815260200190815260200160002081908060018154018082558091505060019003906000526020600020016000909190919091505584600c6000611455611843565b73ffffffffffffffffffffffffffffffffffffffff1673ffffffffffffffffffffffffffffffffffffffff1681526020019081526020016000208190555080600e81905550856040516114a8919061362a565b60405180910390203373ffffffffffffffffffffffffffffffffffffffff167f371f376692dd846fa34380a8fd44c6a140dc5cd442cd8ae5657963685f17ebed60405160405180910390a3505050505050565b606061150682611901565b611545576040517f08c379a000000000000000000000000000000000000000000000000000000000815260040161153c906136b3565b60405180910390fd5b600060066000848152602001908152602001600020805461156590612f7b565b80601f016020809104026020016040519081016040528092919081815260200182805461159190612f7b565b80156115de5780601f106115b3576101008083540402835291602001916115de565b820191906000526020600020905b8154815290600101906020018083116115c157829003601f168201915b5050505050905060006115ef6120e8565b9050600081511415611605578192505050611648565b60008251111561163a5780826040516020016116229291906136d3565b60405160208183030381529060405292505050611648565b611643846120ff565b925050505b919050565b6000600560008473ffffffffffffffffffffffffffffffffffffffff1673ffffffffffffffffffffffffffffffffffffffff16815260200190815260200160002060008373ffffffffffffffffffffffffffffffffffffffff1673ffffffffffffffffffffffffffffffffffffffff16815260200190815260200160002060009054906101000a900460ff16905092915050565b6116e9611843565b73ffffffffffffffffffffffffffffffffffffffff16611707610fa6565b73ffffffffffffffffffffffffffffffffffffffff161461175d576040517f08c379a000000000000000000000000000000000000000000000000000000000815260040161175490612f2c565b60405180910390fd5b600073ffffffffffffffffffffffffffffffffffffffff168173ffffffffffffffffffffffffffffffffffffffff1614156117cd576040517f08c379a00000000000000000000000000000000000000000000000000000000081526004016117c490613769565b60405180910390fd5b6117d681611dd4565b50565b60007f01ffc9a7000000000000000000000000000000000000000000000000000000007bffffffffffffffffffffffffffffffffffffffffffffffffffffffff1916827bffffffffffffffffffffffffffffffffffffffffffffffffffffffff1916149050919050565b600033905090565b6000611855610fa6565b73ffffffffffffffffffffffffffffffffffffffff1647604051611878906137ba565b60006040518083038185875af1925050503d80600081146118b5576040519150601f19603f3d011682016040523d82523d6000602084013e6118ba565b606091505b50509050806118fe576040517f08c379a00000000000000000000000000000000000000000000000000000000081526004016118f59061381b565b60405180910390fd5b50565b60008073ffffffffffffffffffffffffffffffffffffffff166002600084815260200190815260200160002060009054906101000a900473ffffffffffffffffffffffffffffffffffffffff1673ffffffffffffffffffffffffffffffffffffffff1614159050919050565b816004600083815260200190815260200160002060006101000a81548173ffffffffffffffffffffffffffffffffffffffff021916908373ffffffffffffffffffffffffffffffffffffffff160217905550808273ffffffffffffffffffffffffffffffffffffffff166119e083610db4565b73ffffffffffffffffffffffffffffffffffffffff167f8c5be1e5ebec7d5bd14f71427d1e84f3dd0314c0f7b2291e5b200ac8c7c3b92560405160405180910390a45050565b6000611a3182611901565b611a70576040517f08c379a0000000000000000000000000000000000000000000000000000000008152600401611a67906138ad565b60405180910390fd5b6000611a7b83610db4565b90508073ffffffffffffffffffffffffffffffffffffffff168473ffffffffffffffffffffffffffffffffffffffff161480611aea57508373ffffffffffffffffffffffffffffffffffffffff16611ad2846107fe565b73ffffffffffffffffffffffffffffffffffffffff16145b80611afb5750611afa818561164d565b5b91505092915050565b8273ffffffffffffffffffffffffffffffffffffffff16611b2482610db4565b73ffffffffffffffffffffffffffffffffffffffff1614611b7a576040517f08c379a0000000000000000000000000000000000000000000000000000000008152600401611b719061393f565b60405180910390fd5b600073ffffffffffffffffffffffffffffffffffffffff168273ffffffffffffffffffffffffffffffffffffffff161415611bea576040517f08c379a0000000000000000000000000000000000000000000000000000000008152600401611be1906139d1565b60405180910390fd5b611bf58383836121a6565b611c0060008261196d565b6001600360008573ffffffffffffffffffffffffffffffffffffffff1673ffffffffffffffffffffffffffffffffffffffff1681526020019081526020016000206000828254611c509190613a20565b925050819055506001600360008473ffffffffffffffffffffffffffffffffffffffff1673ffffffffffffffffffffffffffffffffffffffff1681526020019081526020016000206000828254611ca79190613a54565b92505081905550816002600083815260200190815260200160002060006101000a81548173ffffffffffffffffffffffffffffffffffffffff021916908373ffffffffffffffffffffffffffffffffffffffff160217905550808273ffffffffffffffffffffffffffffffffffffffff168473ffffffffffffffffffffffffffffffffffffffff167fddf252ad1be2c89b69c2b068fc378daa952ba7f163c4a11628f55a4df523b3ef60405160405180910390a4505050565b611d6982611901565b611da8576040517f08c379a0000000000000000000000000000000000000000000000000000000008152600401611d9f90613b1c565b60405180910390fd5b80600660008481526020019081526020016000209080519060200190611dcf9291906124b6565b505050565b6000600760009054906101000a900473ffffffffffffffffffffffffffffffffffffffff16905081600760006101000a81548173ffffffffffffffffffffffffffffffffffffffff021916908373ffffffffffffffffffffffffffffffffffffffff1602179055508173ffffffffffffffffffffffffffffffffffffffff168173ffffffffffffffffffffffffffffffffffffffff167f8be0079c531659141344cd1fd0a4f28419497f9722a3daafe3b4186f6b6457e060405160405180910390a35050565b611ea5848484611b04565b611eb1848484846121ab565b611ef0576040517f08c379a0000000000000000000000000000000000000000000000000000000008152600401611ee790613bae565b60405180910390fd5b50505050565b6001816000016000828254019250508190555050565b600081600001549050919050565b600073ffffffffffffffffffffffffffffffffffffffff168273ffffffffffffffffffffffffffffffffffffffff161415611f8a576040517f08c379a0000000000000000000000000000000000000000000000000000000008152600401611f8190613c1a565b60405180910390fd5b611f9381611901565b15611fd3576040517f08c379a0000000000000000000000000000000000000000000000000000000008152600401611fca90613c86565b60405180910390fd5b611fdf600083836121a6565b6001600360008473ffffffffffffffffffffffffffffffffffffffff1673ffffffffffffffffffffffffffffffffffffffff168152602001908152602001600020600082825461202f9190613a54565b92505081905550816002600083815260200190815260200160002060006101000a81548173ffffffffffffffffffffffffffffffffffffffff021916908373ffffffffffffffffffffffffffffffffffffffff160217905550808273ffffffffffffffffffffffffffffffffffffffff16600073ffffffffffffffffffffffffffffffffffffffff167fddf252ad1be2c89b69c2b068fc378daa952ba7f163c4a11628f55a4df523b3ef60405160405180910390a45050565b606060405180602001604052806000815250905090565b606061210a82611901565b612149576040517f08c379a000000000000000000000000000000000000000000000000000000000815260040161214090613d18565b60405180910390fd5b60006121536120e8565b90506000815111612173576040518060200160405280600081525061219e565b8061217d84612342565b60405160200161218e9291906136d3565b6040516020818303038152906040525b915050919050565b505050565b60006121cc8473ffffffffffffffffffffffffffffffffffffffff166124a3565b15612335578373ffffffffffffffffffffffffffffffffffffffff1663150b7a026121f5611843565b8786866040518563ffffffff1660e01b81526004016122179493929190613d8d565b602060405180830381600087803b15801561223157600080fd5b505af192505050801561226257506040513d601f19601f8201168201806040525081019061225f9190613dee565b60015b6122e5573d8060008114612292576040519150601f19603f3d011682016040523d82523d6000602084013e612297565b606091505b506000815114156122dd576040517f08c379a00000000000000000000000000000000000000000000000000000000081526004016122d490613bae565b60405180910390fd5b805181602001fd5b63150b7a0260e01b7bffffffffffffffffffffffffffffffffffffffffffffffffffffffff1916817bffffffffffffffffffffffffffffffffffffffffffffffffffffffff19161491505061233a565b600190505b949350505050565b6060600082141561238a576040518060400160405280600181526020017f3000000000000000000000000000000000000000000000000000000000000000815250905061249e565b600082905060005b600082146123bc5780806123a590613e1b565b915050600a826123b59190613e93565b9150612392565b60008167ffffffffffffffff8111156123d8576123d76128eb565b5b6040519080825280601f01601f19166020018201604052801561240a5781602001600182028036833780820191505090505b5090505b60008514612497576001826124239190613a20565b9150600a856124329190613ec4565b603061243e9190613a54565b60f81b81838151811061245457612453613ef5565b5b60200101907effffffffffffffffffffffffffffffffffffffffffffffffffffffffffffff1916908160001a905350600a856124909190613e93565b945061240e565b8093505050505b919050565b600080823b905060008111915050919050565b8280546124c290612f7b565b90600052602060002090601f0160209004810192826124e4576000855561252b565b82601f106124fd57805160ff191683800117855561252b565b8280016001018555821561252b579182015b8281111561252a57825182559160200191906001019061250f565b5b509050612538919061253c565b5090565b5b8082111561255557600081600090555060010161253d565b5090565b600073ffffffffffffffffffffffffffffffffffffffff82169050919050565b600061258482612559565b9050919050565b61259481612579565b82525050565b6000819050919050565b6125ad8161259a565b82525050565b60006040820190506125c8600083018561258b565b6125d560208301846125a4565b9392505050565b6000604051905090565b600080fd5b600080fd5b60007fffffffff0000000000000000000000000000000000000000000000000000000082169050919050565b612625816125f0565b811461263057600080fd5b50565b6000813590506126428161261c565b92915050565b60006020828403121561265e5761265d6125e6565b5b600061266c84828501612633565b91505092915050565b60008115159050919050565b61268a81612675565b82525050565b60006020820190506126a56000830184612681565b92915050565b600081519050919050565b600082825260208201905092915050565b60005b838110156126e55780820151818401526020810190506126ca565b838111156126f4576000848401525b50505050565b6000601f19601f8301169050919050565b6000612716826126ab565b61272081856126b6565b93506127308185602086016126c7565b612739816126fa565b840191505092915050565b6000602082019050818103600083015261275e818461270b565b905092915050565b61276f8161259a565b811461277a57600080fd5b50565b60008135905061278c81612766565b92915050565b6000602082840312156127a8576127a76125e6565b5b60006127b68482850161277d565b91505092915050565b60006020820190506127d4600083018461258b565b92915050565b6127e381612579565b81146127ee57600080fd5b50565b600081359050612800816127da565b92915050565b6000806040838503121561281d5761281c6125e6565b5b600061282b858286016127f1565b925050602061283c8582860161277d565b9150509250929050565b600060208201905061285b60008301846125a4565b92915050565b600060208284031215612877576128766125e6565b5b6000612885848285016127f1565b91505092915050565b6000806000606084860312156128a7576128a66125e6565b5b60006128b5868287016127f1565b93505060206128c6868287016127f1565b92505060406128d78682870161277d565b9150509250925092565b600080fd5b600080fd5b7f4e487b7100000000000000000000000000000000000000000000000000000000600052604160045260246000fd5b612923826126fa565b810181811067ffffffffffffffff82111715612942576129416128eb565b5b80604052505050565b60006129556125dc565b9050612961828261291a565b919050565b600067ffffffffffffffff821115612981576129806128eb565b5b61298a826126fa565b9050602081019050919050565b82818337600083830152505050565b60006129b96129b484612966565b61294b565b9050828152602081018484840111156129d5576129d46128e6565b5b6129e0848285612997565b509392505050565b600082601f8301126129fd576129fc6128e1565b5b8135612a0d8482602086016129a6565b91505092915050565b6000819050919050565b612a2981612a16565b8114612a3457600080fd5b50565b600081359050612a4681612a20565b92915050565b600060ff82169050919050565b612a6281612a4c565b8114612a6d57600080fd5b50565b600081359050612a7f81612a59565b92915050565b60008060008060008060c08789031215612aa257612aa16125e6565b5b6000612ab089828a0161277d565b965050602087013567ffffffffffffffff811115612ad157612ad06125eb565b5b612add89828a016129e8565b9550506040612aee89828a0161277d565b9450506060612aff89828a01612a37565b9350506080612b1089828a01612a37565b92505060a0612b2189828a01612a70565b9150509295509295509295565b6000612b3982612559565b9050919050565b612b4981612b2e565b8114612b5457600080fd5b50565b600081359050612b6681612b40565b92915050565b600060208284031215612b8257612b816125e6565b5b6000612b9084828501612b57565b91505092915050565b600081519050919050565b600082825260208201905092915050565b6000819050602082019050919050565b612bce8161259a565b82525050565b6000612be08383612bc5565b60208301905092915050565b6000602082019050919050565b6000612c0482612b99565b612c0e8185612ba4565b9350612c1983612bb5565b8060005b83811015612c4a578151612c318882612bd4565b9750612c3c83612bec565b925050600181019050612c1d565b5085935050505092915050565b60006020820190508181036000830152612c718184612bf9565b905092915050565b612c8281612675565b8114612c8d57600080fd5b50565b600081359050612c9f81612c79565b92915050565b60008060408385031215612cbc57612cbb6125e6565b5b6000612cca858286016127f1565b9250506020612cdb85828601612c90565b9150509250929050565b600067ffffffffffffffff821115612d0057612cff6128eb565b5b612d09826126fa565b9050602081019050919050565b6000612d29612d2484612ce5565b61294b565b905082815260208101848484011115612d4557612d446128e6565b5b612d50848285612997565b509392505050565b600082601f830112612d6d57612d6c6128e1565b5b8135612d7d848260208601612d16565b91505092915050565b60008060008060808587031215612da057612d9f6125e6565b5b6000612dae878288016127f1565b9450506020612dbf878288016127f1565b9350506040612dd08782880161277d565b925050606085013567ffffffffffffffff811115612df157612df06125eb565b5b612dfd87828801612d58565b91505092959194509250565b600080600080600060a08688031215612e2557612e246125e6565b5b600086013567ffffffffffffffff811115612e4357612e426125eb565b5b612e4f888289016129e8565b9550506020612e608882890161277d565b9450506040612e7188828901612a37565b9350506060612e8288828901612a37565b9250506080612e9388828901612a70565b9150509295509295909350565b60008060408385031215612eb757612eb66125e6565b5b6000612ec5858286016127f1565b9250506020612ed6858286016127f1565b9150509250929050565b7f4f776e61626c653a2063616c6c6572206973206e6f7420746865206f776e6572600082015250565b6000612f166020836126b6565b9150612f2182612ee0565b602082019050919050565b60006020820190508181036000830152612f4581612f09565b9050919050565b7f4e487b7100000000000000000000000000000000000000000000000000000000600052602260045260246000fd5b60006002820490506001821680612f9357607f821691505b60208210811415612fa757612fa6612f4c565b5b50919050565b7f4552433732313a20617070726f76656420717565727920666f72206e6f6e657860008201527f697374656e7420746f6b656e0000000000000000000000000000000000000000602082015250565b6000613009602c836126b6565b915061301482612fad565b604082019050919050565b6000602082019050818103600083015261303881612ffc565b9050919050565b7f4552433732313a20617070726f76616c20746f2063757272656e74206f776e6560008201527f7200000000000000000000000000000000000000000000000000000000000000602082015250565b600061309b6021836126b6565b91506130a68261303f565b604082019050919050565b600060208201905081810360008301526130ca8161308e565b9050919050565b7f4552433732313a20617070726f76652063616c6c6572206973206e6f74206f7760008201527f6e6572206e6f7220617070726f76656420666f7220616c6c0000000000000000602082015250565b600061312d6038836126b6565b9150613138826130d1565b604082019050919050565b6000602082019050818103600083015261315c81613120565b9050919050565b7f4552433732313a207472616e736665722063616c6c6572206973206e6f74206f60008201527f776e6572206e6f7220617070726f766564000000000000000000000000000000602082015250565b60006131bf6031836126b6565b91506131ca82613163565b604082019050919050565b600060208201905081810360008301526131ee816131b2565b9050919050565b7f6e6f7420746f6b656e206f776e65720000000000000000000000000000000000600082015250565b600061322b600f836126b6565b9150613236826131f5565b602082019050919050565b6000602082019050818103600083015261325a8161321e565b9050919050565b61326a81612a16565b82525050565b61327981612a4c565b82525050565b600060e082019050613294600083018a61258b565b81810360208301526132a6818961270b565b90506132b560408301886125a4565b6132c260608301876125a4565b6132cf6080830186613261565b6132dc60a0830185613261565b6132e960c0830184613270565b98975050505050505050565b60008151905061330481612c79565b92915050565b6000602082840312156133205761331f6125e6565b5b600061332e848285016132f5565b91505092915050565b7f6e6f742076657269666965640000000000000000000000000000000000000000600082015250565b600061336d600c836126b6565b915061337882613337565b602082019050919050565b6000602082019050818103600083015261339c81613360565b9050919050565b7f4552433732313a206f776e657220717565727920666f72206e6f6e657869737460008201527f656e7420746f6b656e0000000000000000000000000000000000000000000000602082015250565b60006133ff6029836126b6565b915061340a826133a3565b604082019050919050565b6000602082019050818103600083015261342e816133f2565b9050919050565b7f4552433732313a2062616c616e636520717565727920666f7220746865207a6560008201527f726f206164647265737300000000000000000000000000000000000000000000602082015250565b6000613491602a836126b6565b915061349c82613435565b604082019050919050565b600060208201905081810360008301526134c081613484565b9050919050565b7f4552433732313a20617070726f766520746f2063616c6c657200000000000000600082015250565b60006134fd6019836126b6565b9150613508826134c7565b602082019050919050565b6000602082019050818103600083015261352c816134f0565b9050919050565b6000819050919050565b6000819050919050565b600061356261355d61355884613533565b61353d565b61259a565b9050919050565b61357281613547565b82525050565b600060e08201905061358d600083018a61258b565b818103602083015261359f818961270b565b90506135ae6040830188613569565b6135bb60608301876125a4565b6135c86080830186613261565b6135d560a0830185613261565b6135e260c0830184613270565b98975050505050505050565b600081905092915050565b6000613604826126ab565b61360e81856135ee565b935061361e8185602086016126c7565b80840191505092915050565b600061363682846135f9565b915081905092915050565b7f45524337323155524953746f726167653a2055524920717565727920666f722060008201527f6e6f6e6578697374656e7420746f6b656e000000000000000000000000000000602082015250565b600061369d6031836126b6565b91506136a882613641565b604082019050919050565b600060208201905081810360008301526136cc81613690565b9050919050565b60006136df82856135f9565b91506136eb82846135f9565b91508190509392505050565b7f4f776e61626c653a206e6577206f776e657220697320746865207a65726f206160008201527f6464726573730000000000000000000000000000000000000000000000000000602082015250565b60006137536026836126b6565b915061375e826136f7565b604082019050919050565b6000602082019050818103600083015261378281613746565b9050919050565b600081905092915050565b50565b60006137a4600083613789565b91506137af82613794565b600082019050919050565b60006137c582613797565b9150819050919050565b7f7472616e73616374696f6e206e6f7420636f6d706c6574656400000000000000600082015250565b60006138056019836126b6565b9150613810826137cf565b602082019050919050565b60006020820190508181036000830152613834816137f8565b9050919050565b7f4552433732313a206f70657261746f7220717565727920666f72206e6f6e657860008201527f697374656e7420746f6b656e0000000000000000000000000000000000000000602082015250565b6000613897602c836126b6565b91506138a28261383b565b604082019050919050565b600060208201905081810360008301526138c68161388a565b9050919050565b7f4552433732313a207472616e73666572206f6620746f6b656e2074686174206960008201527f73206e6f74206f776e0000000000000000000000000000000000000000000000602082015250565b60006139296029836126b6565b9150613934826138cd565b604082019050919050565b600060208201905081810360008301526139588161391c565b9050919050565b7f4552433732313a207472616e7366657220746f20746865207a65726f2061646460008201527f7265737300000000000000000000000000000000000000000000000000000000602082015250565b60006139bb6024836126b6565b91506139c68261395f565b604082019050919050565b600060208201905081810360008301526139ea816139ae565b9050919050565b7f4e487b7100000000000000000000000000000000000000000000000000000000600052601160045260246000fd5b6000613a2b8261259a565b9150613a368361259a565b925082821015613a4957613a486139f1565b5b828203905092915050565b6000613a5f8261259a565b9150613a6a8361259a565b9250827fffffffffffffffffffffffffffffffffffffffffffffffffffffffffffffffff03821115613a9f57613a9e6139f1565b5b828201905092915050565b7f45524337323155524953746f726167653a2055524920736574206f66206e6f6e60008201527f6578697374656e7420746f6b656e000000000000000000000000000000000000602082015250565b6000613b06602e836126b6565b9150613b1182613aaa565b604082019050919050565b60006020820190508181036000830152613b3581613af9565b9050919050565b7f4552433732313a207472616e7366657220746f206e6f6e20455243373231526560008201527f63656976657220696d706c656d656e7465720000000000000000000000000000602082015250565b6000613b986032836126b6565b9150613ba382613b3c565b604082019050919050565b60006020820190508181036000830152613bc781613b8b565b9050919050565b7f4552433732313a206d696e7420746f20746865207a65726f2061646472657373600082015250565b6000613c046020836126b6565b9150613c0f82613bce565b602082019050919050565b60006020820190508181036000830152613c3381613bf7565b9050919050565b7f4552433732313a20746f6b656e20616c7265616479206d696e74656400000000600082015250565b6000613c70601c836126b6565b9150613c7b82613c3a565b602082019050919050565b60006020820190508181036000830152613c9f81613c63565b9050919050565b7f4552433732314d657461646174613a2055524920717565727920666f72206e6f60008201527f6e6578697374656e7420746f6b656e0000000000000000000000000000000000602082015250565b6000613d02602f836126b6565b9150613d0d82613ca6565b604082019050919050565b60006020820190508181036000830152613d3181613cf5565b9050919050565b600081519050919050565b600082825260208201905092915050565b6000613d5f82613d38565b613d698185613d43565b9350613d798185602086016126c7565b613d82816126fa565b840191505092915050565b6000608082019050613da2600083018761258b565b613daf602083018661258b565b613dbc60408301856125a4565b8181036060830152613dce8184613d54565b905095945050505050565b600081519050613de88161261c565b92915050565b600060208284031215613e0457613e036125e6565b5b6000613e1284828501613dd9565b91505092915050565b6000613e268261259a565b91507fffffffffffffffffffffffffffffffffffffffffffffffffffffffffffffffff821415613e5957613e586139f1565b5b600182019050919050565b7f4e487b7100000000000000000000000000000000000000000000000000000000600052601260045260246000fd5b6000613e9e8261259a565b9150613ea98361259a565b925082613eb957613eb8613e64565b5b828204905092915050565b6000613ecf8261259a565b9150613eda8361259a565b925082613eea57613ee9613e64565b5b828206905092915050565b7f4e487b7100000000000000000000000000000000000000000000000000000000600052603260045260246000fdfea26469706673582212200b086252667676621c72ed90aa75f35c123e6b2f551bcfdadb66b5c5d5aa176864736f6c63430008090033",
  "immutableReferences": {},
  "source": "// SPDX-License-Identifier: MIT\npragma solidity >=0.7.0 <0.9.0;\n\nimport \"@openzeppelin/contracts/utils/Counters.sol\";\nimport \"@openzeppelin/contracts/token/ERC721/extensions/ERC721URIStorage.sol\";\nimport \"@openzeppelin/contracts/token/ERC721/ERC721.sol\";\nimport \"@openzeppelin/contracts/access/Ownable.sol\";\nimport \"./Verify.sol\";\n\ncontract InsuranceNFT is ERC721URIStorage, Ownable{\n    using Counters for Counters.Counter;\n    \n    Counters.Counter private _tokenIds;\n\n    \n    address payable internal DAOContract;//DAO contract address\n    Verify verifyContract; //address of verifying contract\n    \n    mapping (address => uint) public lastBlockNumberUpdate; // track mint/update of NFTs per address;\n    mapping (address => uint) public lastTimeStampNFTUsed; // last timestamp we used for minting NFT\n    mapping (address => uint[]) internal tokensByAddress;//track all NFTs owned by a user\n\n    uint public currentTokenIdMax; // for ease of access public call\n\n    event NFTMinted(address indexed _to, string indexed _tokenURI);\n    event ReceiveCalled(address _caller, uint _value);\n    \n    \n\n    constructor(address _verifyAddress, address payable _DAOAddress) ERC721(\"IoTex Insurance\", \"IOTXI\") public{\n        verifyContract = Verify(_verifyAddress);\n        DAOContract = _DAOAddress;\n    }\n\n    receive() external payable {\n        emit ReceiveCalled(msg.sender, msg.value);\n    }\n\n    function mintTokens(string memory _tokenURI, uint256 lastTimeStamp, bytes32 r, bytes32 s, uint8 v) public {  \n        require(verifyContract.metaDataVerify(_msgSender(), _tokenURI, 0, lastTimeStamp, r, s, v), \"not verified\");\n        uint256 newItemId;\n        _tokenIds.increment();\n        newItemId = _tokenIds.current(); \n        \n        _mint(_msgSender(), newItemId);\n        _setTokenURI(newItemId, _tokenURI);\n        lastBlockNumberUpdate[_msgSender()] = block.number;\n        tokensByAddress[_msgSender()].push(newItemId);\n        lastTimeStampNFTUsed[_msgSender()] = lastTimeStamp;\n        currentTokenIdMax = newItemId;\n        emit NFTMinted(msg.sender, _tokenURI);\n    }\n\n    function updateTokenURI(uint _tokenId, string memory _newTokenURI, uint256 lastTimeStamp, bytes32 r, bytes32 s, uint8 v) public {\n        require(_msgSender()== ownerOf(_tokenId), \"not token owner\");\n        //call verify(_msgSender(), _tokenURI, tokenId)\n        require(verifyContract.metaDataVerify(_msgSender(), _newTokenURI, _tokenId, lastTimeStamp,r, s, v), \"not verified\");\n        _setTokenURI(_tokenId, _newTokenURI);\n        lastBlockNumberUpdate[_msgSender()] = block.number;\n        lastTimeStampNFTUsed[_msgSender()] = lastTimeStamp;\n    }\n\n    function setDAOContract(address payable _DAOAddress) public onlyOwner{\n        DAOContract = _DAOAddress;\n    }\n\n    function getTokensByAddr(address tokenAddress) public view returns(uint[] memory){\n        return tokensByAddress[tokenAddress];\n    }\n\n    function withdrawToWallet() public onlyOwner{\n        transferToWallet();\n    }\n\n    function transferToWallet() internal {\n        (bool success,) = owner().call{value : address(this).balance}(\"\");\n        require(success, \"transaction not completed\");\n    }\n}",
  "sourcePath": "/home/jpick713/BlockChain_Apps/iotexPebbleDAO/contracts/InsuranceNFT.sol",
  "compiler": {
    "name": "solc",
    "version": "0.8.9+commit.e5eed63a.Emscripten.clang"
  },
  "schemaVersion": "3.4.2",
  "updatedAt": "2021-10-31T02:58:33.246Z",
  "networkType": "ethereum",
  "devdoc": {
    "kind": "dev",
    "methods": {
      "approve(address,uint256)": {
        "details": "See {IERC721-approve}."
      },
      "balanceOf(address)": {
        "details": "See {IERC721-balanceOf}."
      },
      "getApproved(uint256)": {
        "details": "See {IERC721-getApproved}."
      },
      "isApprovedForAll(address,address)": {
        "details": "See {IERC721-isApprovedForAll}."
      },
      "name()": {
        "details": "See {IERC721Metadata-name}."
      },
      "owner()": {
        "details": "Returns the address of the current owner."
      },
      "ownerOf(uint256)": {
        "details": "See {IERC721-ownerOf}."
      },
      "renounceOwnership()": {
        "details": "Leaves the contract without owner. It will not be possible to call `onlyOwner` functions anymore. Can only be called by the current owner. NOTE: Renouncing ownership will leave the contract without an owner, thereby removing any functionality that is only available to the owner."
      },
      "safeTransferFrom(address,address,uint256)": {
        "details": "See {IERC721-safeTransferFrom}."
      },
      "safeTransferFrom(address,address,uint256,bytes)": {
        "details": "See {IERC721-safeTransferFrom}."
      },
      "setApprovalForAll(address,bool)": {
        "details": "See {IERC721-setApprovalForAll}."
      },
      "supportsInterface(bytes4)": {
        "details": "See {IERC165-supportsInterface}."
      },
      "symbol()": {
        "details": "See {IERC721Metadata-symbol}."
      },
      "tokenURI(uint256)": {
        "details": "See {IERC721Metadata-tokenURI}."
      },
      "transferFrom(address,address,uint256)": {
        "details": "See {IERC721-transferFrom}."
      },
      "transferOwnership(address)": {
        "details": "Transfers ownership of the contract to a new account (`newOwner`). Can only be called by the current owner."
      }
    },
    "version": 1
  },
  "userdoc": {
    "kind": "user",
    "methods": {},
    "version": 1
  }
}