{
  "contractName": "InsuranceDAO",
  "abi": [
    {
      "inputs": [
        {
          "internalType": "address",
          "name": "_verifyAddress",
          "type": "address"
        }
      ],
      "stateMutability": "nonpayable",
      "type": "constructor"
    },
    {
      "anonymous": false,
      "inputs": [
        {
          "indexed": true,
          "internalType": "address",
          "name": "previousOwner",
          "type": "address"
        },
        {
          "indexed": true,
          "internalType": "address",
          "name": "newOwner",
          "type": "address"
        }
      ],
      "name": "OwnershipTransferred",
      "type": "event"
    },
    {
      "inputs": [
        {
          "internalType": "uint256",
          "name": "",
          "type": "uint256"
        },
        {
          "internalType": "address",
          "name": "",
          "type": "address"
        }
      ],
      "name": "currentTokenIdForAddr",
      "outputs": [
        {
          "internalType": "uint256",
          "name": "",
          "type": "uint256"
        }
      ],
      "stateMutability": "view",
      "type": "function",
      "constant": true
    },
    {
      "inputs": [
        {
          "internalType": "uint256",
          "name": "",
          "type": "uint256"
        },
        {
          "internalType": "address",
          "name": "",
          "type": "address"
        }
      ],
      "name": "levelsEntered",
      "outputs": [
        {
          "internalType": "uint256",
          "name": "",
          "type": "uint256"
        }
      ],
      "stateMutability": "view",
      "type": "function",
      "constant": true
    },
    {
      "inputs": [],
      "name": "owner",
      "outputs": [
        {
          "internalType": "address",
          "name": "",
          "type": "address"
        }
      ],
      "stateMutability": "view",
      "type": "function",
      "constant": true
    },
    {
      "inputs": [
        {
          "internalType": "uint256",
          "name": "",
          "type": "uint256"
        },
        {
          "internalType": "address",
          "name": "",
          "type": "address"
        }
      ],
      "name": "paymentLevels",
      "outputs": [
        {
          "internalType": "uint256",
          "name": "",
          "type": "uint256"
        }
      ],
      "stateMutability": "view",
      "type": "function",
      "constant": true
    },
    {
      "inputs": [],
      "name": "payoutCap",
      "outputs": [
        {
          "internalType": "uint256",
          "name": "",
          "type": "uint256"
        }
      ],
      "stateMutability": "view",
      "type": "function",
      "constant": true
    },
    {
      "inputs": [
        {
          "internalType": "uint256",
          "name": "",
          "type": "uint256"
        }
      ],
      "name": "ratingLabels",
      "outputs": [
        {
          "internalType": "string",
          "name": "",
          "type": "string"
        }
      ],
      "stateMutability": "view",
      "type": "function",
      "constant": true
    },
    {
      "inputs": [],
      "name": "renounceOwnership",
      "outputs": [],
      "stateMutability": "nonpayable",
      "type": "function"
    },
    {
      "inputs": [
        {
          "internalType": "uint256",
          "name": "",
          "type": "uint256"
        },
        {
          "internalType": "address",
          "name": "",
          "type": "address"
        }
      ],
      "name": "roundPayouts",
      "outputs": [
        {
          "internalType": "uint256",
          "name": "",
          "type": "uint256"
        }
      ],
      "stateMutability": "view",
      "type": "function",
      "constant": true
    },
    {
      "inputs": [],
      "name": "totalLevels",
      "outputs": [
        {
          "internalType": "uint256",
          "name": "",
          "type": "uint256"
        }
      ],
      "stateMutability": "view",
      "type": "function",
      "constant": true
    },
    {
      "inputs": [
        {
          "internalType": "address",
          "name": "newOwner",
          "type": "address"
        }
      ],
      "name": "transferOwnership",
      "outputs": [],
      "stateMutability": "nonpayable",
      "type": "function"
    },
    {
      "stateMutability": "payable",
      "type": "receive",
      "payable": true
    },
    {
      "inputs": [
        {
          "internalType": "uint256",
          "name": "level",
          "type": "uint256"
        },
        {
          "internalType": "uint256",
          "name": "tokenId",
          "type": "uint256"
        },
        {
          "internalType": "uint256",
          "name": "timeStamp",
          "type": "uint256"
        },
        {
          "internalType": "bytes32",
          "name": "r",
          "type": "bytes32"
        },
        {
          "internalType": "bytes32",
          "name": "s",
          "type": "bytes32"
        },
        {
          "internalType": "uint8",
          "name": "v",
          "type": "uint8"
        }
      ],
      "name": "addToDao",
      "outputs": [],
      "stateMutability": "payable",
      "type": "function",
      "payable": true
    },
    {
      "inputs": [
        {
          "internalType": "uint256[]",
          "name": "costs",
          "type": "uint256[]"
        },
        {
          "internalType": "uint256[]",
          "name": "_ratingBreaks",
          "type": "uint256[]"
        }
      ],
      "name": "setCostSchedule",
      "outputs": [],
      "stateMutability": "nonpayable",
      "type": "function"
    },
    {
      "inputs": [
        {
          "internalType": "uint256[]",
          "name": "levels",
          "type": "uint256[]"
        },
        {
          "internalType": "uint256[]",
          "name": "penalties",
          "type": "uint256[]"
        }
      ],
      "name": "setPenalties",
      "outputs": [],
      "stateMutability": "nonpayable",
      "type": "function"
    },
    {
      "inputs": [
        {
          "internalType": "address payable",
          "name": "NFTContract",
          "type": "address"
        }
      ],
      "name": "setNFTContract",
      "outputs": [],
      "stateMutability": "nonpayable",
      "type": "function"
    },
    {
      "inputs": [
        {
          "internalType": "string",
          "name": "newLabel",
          "type": "string"
        },
        {
          "internalType": "uint256",
          "name": "index",
          "type": "uint256"
        }
      ],
      "name": "setLabel",
      "outputs": [],
      "stateMutability": "nonpayable",
      "type": "function"
    },
    {
      "inputs": [],
      "name": "getPenaltyLevels",
      "outputs": [
        {
          "internalType": "uint256[]",
          "name": "",
          "type": "uint256[]"
        }
      ],
      "stateMutability": "view",
      "type": "function",
      "constant": true
    },
    {
      "inputs": [],
      "name": "getAccLevels",
      "outputs": [
        {
          "internalType": "uint256[]",
          "name": "",
          "type": "uint256[]"
        }
      ],
      "stateMutability": "view",
      "type": "function",
      "constant": true
    },
    {
      "inputs": [],
      "name": "getCosts",
      "outputs": [
        {
          "internalType": "uint256[]",
          "name": "",
          "type": "uint256[]"
        }
      ],
      "stateMutability": "view",
      "type": "function",
      "constant": true
    },
    {
      "inputs": [],
      "name": "getRatings",
      "outputs": [
        {
          "internalType": "uint256[]",
          "name": "",
          "type": "uint256[]"
        }
      ],
      "stateMutability": "view",
      "type": "function",
      "constant": true
    },
    {
      "inputs": [],
      "name": "getCurrentRound",
      "outputs": [
        {
          "internalType": "uint256",
          "name": "",
          "type": "uint256"
        }
      ],
      "stateMutability": "view",
      "type": "function",
      "constant": true
    },
    {
      "inputs": [
        {
          "internalType": "uint256",
          "name": "round",
          "type": "uint256"
        }
      ],
      "name": "getDAOMembers",
      "outputs": [
        {
          "internalType": "address payable[]",
          "name": "",
          "type": "address[]"
        }
      ],
      "stateMutability": "view",
      "type": "function",
      "constant": true
    },
    {
      "inputs": [
        {
          "internalType": "uint256",
          "name": "amount",
          "type": "uint256"
        },
        {
          "internalType": "address payable",
          "name": "_payee",
          "type": "address"
        }
      ],
      "name": "makePayment",
      "outputs": [],
      "stateMutability": "nonpayable",
      "type": "function"
    },
    {
      "inputs": [],
      "name": "makeDAOPayout",
      "outputs": [],
      "stateMutability": "nonpayable",
      "type": "function"
    }
  ],
  "bytecode": "0x60806040526706f05b59d3b200006004553480156200001d57600080fd5b50604051620040693803806200406983398181016040528101906200004391906200020e565b6200006362000057620000c260201b60201c565b620000ca60201b60201c565b80600e60006101000a81548173ffffffffffffffffffffffffffffffffffffffff021916908373ffffffffffffffffffffffffffffffffffffffff160217905550620000bb60016200018e60201b620025cf1760201c565b5062000240565b600033905090565b60008060009054906101000a900473ffffffffffffffffffffffffffffffffffffffff169050816000806101000a81548173ffffffffffffffffffffffffffffffffffffffff021916908373ffffffffffffffffffffffffffffffffffffffff1602179055508173ffffffffffffffffffffffffffffffffffffffff168173ffffffffffffffffffffffffffffffffffffffff167f8be0079c531659141344cd1fd0a4f28419497f9722a3daafe3b4186f6b6457e060405160405180910390a35050565b6001816000016000828254019250508190555050565b600080fd5b600073ffffffffffffffffffffffffffffffffffffffff82169050919050565b6000620001d682620001a9565b9050919050565b620001e881620001c9565b8114620001f457600080fd5b50565b6000815190506200020881620001dd565b92915050565b600060208284031215620002275762000226620001a4565b5b60006200023784828501620001f7565b91505092915050565b613e1980620002506000396000f3fe6080604052600436106101445760003560e01c80638b4e14fc116100b6578063a7ccabdf1161006f578063a7ccabdf1461045e578063c87bfb0d14610487578063e1359140146104b0578063e1aa30b7146104ed578063edcb706314610504578063f2fde38b1461052d5761014b565b80638b4e14fc146103385780638cbdd6bd146103755780638da5cb5b146103a05780638ea73e9c146103cb5780639889999e146103f6578063a32bf597146104335761014b565b8063282c89ce11610108578063282c89ce1461023c57806338ce0056146102675780633b72f0d4146102925780636ddf14fb146102cf578063715018a6146102f85780637ff743811461030f5761014b565b806303075018146101505780630fc6f1601461017b5780631f578031146101b857806323aadc0a146101e357806327a8fdb3146101ff5761014b565b3661014b57005b600080fd5b34801561015c57600080fd5b50610165610556565b6040516101729190612877565b60405180910390f35b34801561018757600080fd5b506101a2600480360381019061019d91906128d9565b6105ae565b6040516101af91906129f6565b60405180910390f35b3480156101c457600080fd5b506101cd61064f565b6040516101da9190612a27565b60405180910390f35b6101fd60048036038101906101f89190612ab1565b610655565b005b34801561020b57600080fd5b5061022660048036038101906102219190612b7c565b611012565b6040516102339190612a27565b60405180910390f35b34801561024857600080fd5b50610251611037565b60405161025e9190612a27565b60405180910390f35b34801561027357600080fd5b5061027c61103d565b6040516102899190612877565b60405180910390f35b34801561029e57600080fd5b506102b960048036038101906102b49190612b7c565b611095565b6040516102c69190612a27565b60405180910390f35b3480156102db57600080fd5b506102f660048036038101906102f19190612d15565b6110ba565b005b34801561030457600080fd5b5061030d611359565b005b34801561031b57600080fd5b5061033660048036038101906103319190612db9565b6113e1565b005b34801561034457600080fd5b5061035f600480360381019061035a9190612b7c565b611b71565b60405161036c9190612a27565b60405180910390f35b34801561038157600080fd5b5061038a611b96565b6040516103979190612877565b60405180910390f35b3480156103ac57600080fd5b506103b5611bee565b6040516103c29190612e08565b60405180910390f35b3480156103d757600080fd5b506103e0611c17565b6040516103ed9190612877565b60405180910390f35b34801561040257600080fd5b5061041d600480360381019061041891906128d9565b611c6f565b60405161042a9190612eab565b60405180910390f35b34801561043f57600080fd5b50610448611d0f565b6040516104559190612a27565b60405180910390f35b34801561046a57600080fd5b5061048560048036038101906104809190612ecd565b611d25565b005b34801561049357600080fd5b506104ae60048036038101906104a99190612faf565b611de5565b005b3480156104bc57600080fd5b506104d760048036038101906104d29190612b7c565b611e8d565b6040516104e49190612a27565b60405180910390f35b3480156104f957600080fd5b50610502611eb2565b005b34801561051057600080fd5b5061052b60048036038101906105269190612d15565b612242565b005b34801561053957600080fd5b50610554600480360381019061054f919061300b565b6124d7565b005b606060028054806020026020016040519081016040528092919081815260200182805480156105a457602002820191906000526020600020905b815481526020019060010190808311610590575b5050505050905090565b6060600c600083815260200190815260200160002080548060200260200160405190810160405280929190818152602001828054801561064357602002820191906000526020600020905b8160009054906101000a900473ffffffffffffffffffffffffffffffffffffffff1673ffffffffffffffffffffffffffffffffffffffff16815260200190600101908083116105f9575b50505050509050919050565b60055481565b600060028054905011801561066f57506000600680549050115b6106ae576040517f08c379a00000000000000000000000000000000000000000000000000000000081526004016106a590613084565b60405180910390fd5b600e60009054906101000a900473ffffffffffffffffffffffffffffffffffffffff1673ffffffffffffffffffffffffffffffffffffffff16639a40f4796106f46125e5565b8888888888886040518863ffffffff1660e01b815260040161071c97969594939291906130c2565b602060405180830381600087803b15801561073657600080fd5b505af115801561074a573d6000803e3d6000fd5b505050506040513d601f19601f8201168201806040525081019061076e9190613169565b6107ad576040517f08c379a00000000000000000000000000000000000000000000000000000000081526004016107a4906131e2565b60405180910390fd5b6000600f60009054906101000a900473ffffffffffffffffffffffffffffffffffffffff1673ffffffffffffffffffffffffffffffffffffffff16634fb2c1936107f56125e5565b6040518263ffffffff1660e01b81526004016108119190612e08565b60006040518083038186803b15801561082957600080fd5b505afa15801561083d573d6000803e3d6000fd5b505050506040513d6000823e3d601f19601f8201168201806040525081019061086691906132ae565b90508581600183516108789190613326565b815181106108895761088861335a565b5b6020026020010151146108d1576040517f08c379a00000000000000000000000000000000000000000000000000000000081526004016108c8906133d5565b60405180910390fd5b60008060006002808b6002805490506108ea9190613326565b6108f491906133f5565b6108fe919061344f565b905060006009600061091060016125ed565b815260200190815260200160002060006109286125e5565b73ffffffffffffffffffffffffffffffffffffffff1673ffffffffffffffffffffffffffffffffffffffff168152602001908152602001600020541115610be25760006008600061097960016125ed565b815260200190815260200160002060006109916125e5565b73ffffffffffffffffffffffffffffffffffffffff1673ffffffffffffffffffffffffffffffffffffffff1681526020019081526020016000205414610a0c576040517f08c379a0000000000000000000000000000000000000000000000000000000008152600401610a0390613517565b60405180910390fd5b60096000610a1a60016125ed565b81526020019081526020016000206000610a326125e5565b73ffffffffffffffffffffffffffffffffffffffff1673ffffffffffffffffffffffffffffffffffffffff168152602001908152602001600020549150898211610ab1576040517f08c379a0000000000000000000000000000000000000000000000000000000008152600401610aa8906135a9565b60405180910390fd5b8960096000610ac060016125ed565b81526020019081526020016000206000610ad86125e5565b73ffffffffffffffffffffffffffffffffffffffff1673ffffffffffffffffffffffffffffffffffffffff1681526020019081526020016000208190555080600a6000610b2560016125ed565b81526020019081526020016000206000610b3d6125e5565b73ffffffffffffffffffffffffffffffffffffffff1673ffffffffffffffffffffffffffffffffffffffff16815260200190815260200160002081905550600260018b610b8a9190613326565b81548110610b9b57610b9a61335a565b5b90600052602060002001546002600184610bb59190613326565b81548110610bc657610bc561335a565b5b9060005260206000200154610bdb9190613326565b9250610d9e565b600260018b610bf19190613326565b81548110610c0257610c0161335a565b5b9060005260206000200154341015610c4f576040517f08c379a0000000000000000000000000000000000000000000000000000000008152600401610c4690613615565b60405180910390fd5b8960096000610c5e60016125ed565b81526020019081526020016000206000610c766125e5565b73ffffffffffffffffffffffffffffffffffffffff1673ffffffffffffffffffffffffffffffffffffffff1681526020019081526020016000208190555080600a6000610cc360016125ed565b81526020019081526020016000206000610cdb6125e5565b73ffffffffffffffffffffffffffffffffffffffff1673ffffffffffffffffffffffffffffffffffffffff16815260200190815260200160002081905550600c6000610d2760016125ed565b8152602001908152602001600020610d3d6125e5565b9080600181540180825580915050600190039060005260206000200160009091909190916101000a81548173ffffffffffffffffffffffffffffffffffffffff021916908373ffffffffffffffffffffffffffffffffffffffff1602179055505b88600d6000610dad60016125ed565b81526020019081526020016000206000610dc56125e5565b73ffffffffffffffffffffffffffffffffffffffff1673ffffffffffffffffffffffffffffffffffffffff168152602001908152602001600020819055508060056000828254610e15919061344f565b925050819055506000831115610ee9576000610e2f6125e5565b73ffffffffffffffffffffffffffffffffffffffff168434610e51919061344f565b604051610e5d90613666565b60006040518083038185875af1925050503d8060008114610e9a576040519150601f19603f3d011682016040523d82523d6000602084013e610e9f565b606091505b5050905080610ee3576040517f08c379a0000000000000000000000000000000000000000000000000000000008152600401610eda906136c7565b60405180910390fd5b50611006565b600260018b610ef89190613326565b81548110610f0957610f0861335a565b5b9060005260206000200154341115611005576000610f256125e5565b73ffffffffffffffffffffffffffffffffffffffff16600260018d610f4a9190613326565b81548110610f5b57610f5a61335a565b5b906000526020600020015434610f719190613326565b604051610f7d90613666565b60006040518083038185875af1925050503d8060008114610fba576040519150601f19603f3d011682016040523d82523d6000602084013e610fbf565b606091505b5050905080611003576040517f08c379a0000000000000000000000000000000000000000000000000000000008152600401610ffa906136c7565b60405180910390fd5b505b5b50505050505050505050565b6008602052816000526040600020602052806000526040600020600091509150505481565b60045481565b6060600780548060200260200160405190810160405280929190818152602001828054801561108b57602002820191906000526020600020905b815481526020019060010190808311611077575b5050505050905090565b600a602052816000526040600020602052806000526040600020600091509150505481565b6110c26125e5565b73ffffffffffffffffffffffffffffffffffffffff166110e0611bee565b73ffffffffffffffffffffffffffffffffffffffff1614611136576040517f08c379a000000000000000000000000000000000000000000000000000000000815260040161112d90613733565b60405180910390fd5b6000600c600061114660016125ed565b81526020019081526020016000208054905014611198576040517f08c379a000000000000000000000000000000000000000000000000000000000815260040161118f9061379f565b60405180910390fd5b6001825110156111dd576040517f08c379a00000000000000000000000000000000000000000000000000000000081526004016111d49061380b565b60405180910390fd5b8051825114611221576040517f08c379a000000000000000000000000000000000000000000000000000000000815260040161121890613877565b60405180910390fd5b60008060006001905060005b85518160ff1610156112e35783868260ff16815181106112505761124f61335a565b5b60200260200101511080611281575082858260ff16815181106112765761127561335a565b5b602002602001015111155b1561128f57600091506112d0565b858160ff16815181106112a5576112a461335a565b5b60200260200101519350848160ff16815181106112c5576112c461335a565b5b602002602001015192505b80806112db90613897565b91505061122d565b5080611324576040517f08c379a000000000000000000000000000000000000000000000000000000000815260040161131b9061390d565b60405180910390fd5b846002908051906020019061133a9291906126bf565b5083600390805190602001906113519291906126bf565b505050505050565b6113616125e5565b73ffffffffffffffffffffffffffffffffffffffff1661137f611bee565b73ffffffffffffffffffffffffffffffffffffffff16146113d5576040517f08c379a00000000000000000000000000000000000000000000000000000000081526004016113cc90613733565b60405180910390fd5b6113df60006125fb565b565b6113e96125e5565b73ffffffffffffffffffffffffffffffffffffffff16611407611bee565b73ffffffffffffffffffffffffffffffffffffffff161461145d576040517f08c379a000000000000000000000000000000000000000000000000000000000815260040161145490613733565b60405180910390fd5b814710156114a0576040517f08c379a000000000000000000000000000000000000000000000000000000000815260040161149790613979565b60405180910390fd5b6000600d60006114b060016125ed565b815260200190815260200160002060008373ffffffffffffffffffffffffffffffffffffffff1673ffffffffffffffffffffffffffffffffffffffff16815260200190815260200160002054141561153d576040517f08c379a0000000000000000000000000000000000000000000000000000000008152600401611534906139e5565b60405180910390fd5b600454826008600061154f60016125ed565b815260200190815260200160002060008473ffffffffffffffffffffffffffffffffffffffff1673ffffffffffffffffffffffffffffffffffffffff168152602001908152602001600020546115a5919061344f565b11156115e6576040517f08c379a00000000000000000000000000000000000000000000000000000000081526004016115dd90613a51565b60405180910390fd5b6000600860006115f660016125ed565b815260200190815260200160002060008373ffffffffffffffffffffffffffffffffffffffff1673ffffffffffffffffffffffffffffffffffffffff168152602001908152602001600020549050826008600061165360016125ed565b815260200190815260200160002060008473ffffffffffffffffffffffffffffffffffffffff1673ffffffffffffffffffffffffffffffffffffffff16815260200190815260200160002060008282546116ad919061344f565b925050819055506002600960006116c460016125ed565b815260200190815260200160002060008473ffffffffffffffffffffffffffffffffffffffff1673ffffffffffffffffffffffffffffffffffffffff16815260200190815260200160002054815481106117215761172061335a565b5b90600052602060002001546008600061173a60016125ed565b815260200190815260200160002060008473ffffffffffffffffffffffffffffffffffffffff1673ffffffffffffffffffffffffffffffffffffffff168152602001908152602001600020541061186157600a600061179960016125ed565b815260200190815260200160002060008373ffffffffffffffffffffffffffffffffffffffff1673ffffffffffffffffffffffffffffffffffffffff16815260200190815260200160002054600560008282546117f69190613326565b925050819055506000600a600061180d60016125ed565b815260200190815260200160002060008473ffffffffffffffffffffffffffffffffffffffff1673ffffffffffffffffffffffffffffffffffffffff16815260200190815260200160002081905550611abf565b6002806009600061187260016125ed565b815260200190815260200160002060008573ffffffffffffffffffffffffffffffffffffffff1673ffffffffffffffffffffffffffffffffffffffff16815260200190815260200160002054815481106118cf576118ce61335a565b5b90600052602060002001546118e49190613aa0565b600860006118f260016125ed565b815260200190815260200160002060008473ffffffffffffffffffffffffffffffffffffffff1673ffffffffffffffffffffffffffffffffffffffff1681526020019081526020016000205410611abe576002806009600061195460016125ed565b815260200190815260200160002060008573ffffffffffffffffffffffffffffffffffffffff1673ffffffffffffffffffffffffffffffffffffffff16815260200190815260200160002054815481106119b1576119b061335a565b5b90600052602060002001546119c69190613aa0565b811015611abd576002600a60006119dd60016125ed565b815260200190815260200160002060008473ffffffffffffffffffffffffffffffffffffffff1673ffffffffffffffffffffffffffffffffffffffff16815260200190815260200160002054611a339190613aa0565b60056000828254611a449190613326565b925050819055506002600a6000611a5b60016125ed565b815260200190815260200160002060008473ffffffffffffffffffffffffffffffffffffffff1673ffffffffffffffffffffffffffffffffffffffff1681526020019081526020016000206000828254611ab59190613aa0565b925050819055505b5b5b60008273ffffffffffffffffffffffffffffffffffffffff1684604051611ae590613666565b60006040518083038185875af1925050503d8060008114611b22576040519150601f19603f3d011682016040523d82523d6000602084013e611b27565b606091505b5050905080611b6b576040517f08c379a0000000000000000000000000000000000000000000000000000000008152600401611b6290613b1d565b60405180910390fd5b50505050565b600d602052816000526040600020602052806000526040600020600091509150505481565b60606003805480602002602001604051908101604052809291908181526020018280548015611be457602002820191906000526020600020905b815481526020019060010190808311611bd0575b5050505050905090565b60008060009054906101000a900473ffffffffffffffffffffffffffffffffffffffff16905090565b60606006805480602002602001604051908101604052809291908181526020018280548015611c6557602002820191906000526020600020905b815481526020019060010190808311611c51575b5050505050905090565b600b6020528060005260406000206000915090508054611c8e90613b6c565b80601f0160208091040260200160405190810160405280929190818152602001828054611cba90613b6c565b8015611d075780601f10611cdc57610100808354040283529160200191611d07565b820191906000526020600020905b815481529060010190602001808311611cea57829003601f168201915b505050505081565b600080611d1c60016125ed565b90508091505090565b611d2d6125e5565b73ffffffffffffffffffffffffffffffffffffffff16611d4b611bee565b73ffffffffffffffffffffffffffffffffffffffff1614611da1576040517f08c379a0000000000000000000000000000000000000000000000000000000008152600401611d9890613733565b60405180910390fd5b80600f60006101000a81548173ffffffffffffffffffffffffffffffffffffffff021916908373ffffffffffffffffffffffffffffffffffffffff16021790555050565b611ded6125e5565b73ffffffffffffffffffffffffffffffffffffffff16611e0b611bee565b73ffffffffffffffffffffffffffffffffffffffff1614611e61576040517f08c379a0000000000000000000000000000000000000000000000000000000008152600401611e5890613733565b60405180910390fd5b81600b60008381526020019081526020016000209080519060200190611e8892919061270c565b505050565b6009602052816000526040600020602052806000526040600020600091509150505481565b611eba6125e5565b73ffffffffffffffffffffffffffffffffffffffff16611ed8611bee565b73ffffffffffffffffffffffffffffffffffffffff1614611f2e576040517f08c379a0000000000000000000000000000000000000000000000000000000008152600401611f2590613733565b60405180910390fd5b6000600c6000611f3e60016125ed565b8152602001908152602001600020805480602002602001604051908101604052809291908181526020018280548015611fcc57602002820191906000526020600020905b8160009054906101000a900473ffffffffffffffffffffffffffffffffffffffff1673ffffffffffffffffffffffffffffffffffffffff1681526020019060010190808311611f82575b505050505090506000815111612017576040517f08c379a000000000000000000000000000000000000000000000000000000000815260040161200e90613c10565b60405180910390fd5b6000600554476120279190613aa0565b90506000600c600061203960016125ed565b81526020019081526020016000208054806020026020016040519081016040528092919081815260200182805480156120c757602002820191906000526020600020905b8160009054906101000a900473ffffffffffffffffffffffffffffffffffffffff1673ffffffffffffffffffffffffffffffffffffffff168152602001906001019080831161207d575b5050505050905060005b81518110156122325760008282815181106120ef576120ee61335a565b5b602002602001015173ffffffffffffffffffffffffffffffffffffffff1684600a600061211c60016125ed565b8152602001908152602001600020600086868151811061213f5761213e61335a565b5b602002602001015173ffffffffffffffffffffffffffffffffffffffff1673ffffffffffffffffffffffffffffffffffffffff1681526020019081526020016000205461218c91906133f5565b60405161219890613666565b60006040518083038185875af1925050503d80600081146121d5576040519150601f19603f3d011682016040523d82523d6000602084013e6121da565b606091505b505090508061221e576040517f08c379a000000000000000000000000000000000000000000000000000000000815260040161221590613c7c565b60405180910390fd5b50808061222a90613c9c565b9150506120d1565b5061223d60016125cf565b505050565b61224a6125e5565b73ffffffffffffffffffffffffffffffffffffffff16612268611bee565b73ffffffffffffffffffffffffffffffffffffffff16146122be576040517f08c379a00000000000000000000000000000000000000000000000000000000081526004016122b590613733565b60405180910390fd5b6000600c60006122ce60016125ed565b81526020019081526020016000208054905014612320576040517f08c379a00000000000000000000000000000000000000000000000000000000081526004016123179061379f565b60405180910390fd5b8051825114612364576040517f08c379a000000000000000000000000000000000000000000000000000000000815260040161235b90613d31565b60405180910390fd5b6000825167ffffffffffffffff81111561238157612380612bd2565b5b6040519080825280602002602001820160405280156123af5781602001602082028036833780820191505090505b5090506000835167ffffffffffffffff8111156123cf576123ce612bd2565b5b6040519080825280602002602001820160405280156123fd5781602001602082028036833780820191505090505b50905060005b84518160ff1610156124a257848160ff16815181106124255761242461335a565b5b6020026020010151838260ff16815181106124435761244261335a565b5b602002602001018181525050838160ff16815181106124655761246461335a565b5b6020026020010151828260ff16815181106124835761248261335a565b5b602002602001018181525050808061249a90613897565b915050612403565b5081600790805190602001906124b99291906126bf565b5080600690805190602001906124d09291906126bf565b5050505050565b6124df6125e5565b73ffffffffffffffffffffffffffffffffffffffff166124fd611bee565b73ffffffffffffffffffffffffffffffffffffffff1614612553576040517f08c379a000000000000000000000000000000000000000000000000000000000815260040161254a90613733565b60405180910390fd5b600073ffffffffffffffffffffffffffffffffffffffff168173ffffffffffffffffffffffffffffffffffffffff1614156125c3576040517f08c379a00000000000000000000000000000000000000000000000000000000081526004016125ba90613dc3565b60405180910390fd5b6125cc816125fb565b50565b6001816000016000828254019250508190555050565b600033905090565b600081600001549050919050565b60008060009054906101000a900473ffffffffffffffffffffffffffffffffffffffff169050816000806101000a81548173ffffffffffffffffffffffffffffffffffffffff021916908373ffffffffffffffffffffffffffffffffffffffff1602179055508173ffffffffffffffffffffffffffffffffffffffff168173ffffffffffffffffffffffffffffffffffffffff167f8be0079c531659141344cd1fd0a4f28419497f9722a3daafe3b4186f6b6457e060405160405180910390a35050565b8280548282559060005260206000209081019282156126fb579160200282015b828111156126fa5782518255916020019190600101906126df565b5b5090506127089190612792565b5090565b82805461271890613b6c565b90600052602060002090601f01602090048101928261273a5760008555612781565b82601f1061275357805160ff1916838001178555612781565b82800160010185558215612781579182015b82811115612780578251825591602001919060010190612765565b5b50905061278e9190612792565b5090565b5b808211156127ab576000816000905550600101612793565b5090565b600081519050919050565b600082825260208201905092915050565b6000819050602082019050919050565b6000819050919050565b6127ee816127db565b82525050565b600061280083836127e5565b60208301905092915050565b6000602082019050919050565b6000612824826127af565b61282e81856127ba565b9350612839836127cb565b8060005b8381101561286a57815161285188826127f4565b975061285c8361280c565b92505060018101905061283d565b5085935050505092915050565b600060208201905081810360008301526128918184612819565b905092915050565b6000604051905090565b600080fd5b600080fd5b6128b6816127db565b81146128c157600080fd5b50565b6000813590506128d3816128ad565b92915050565b6000602082840312156128ef576128ee6128a3565b5b60006128fd848285016128c4565b91505092915050565b600081519050919050565b600082825260208201905092915050565b6000819050602082019050919050565b600073ffffffffffffffffffffffffffffffffffffffff82169050919050565b600061295d82612932565b9050919050565b61296d81612952565b82525050565b600061297f8383612964565b60208301905092915050565b6000602082019050919050565b60006129a382612906565b6129ad8185612911565b93506129b883612922565b8060005b838110156129e95781516129d08882612973565b97506129db8361298b565b9250506001810190506129bc565b5085935050505092915050565b60006020820190508181036000830152612a108184612998565b905092915050565b612a21816127db565b82525050565b6000602082019050612a3c6000830184612a18565b92915050565b6000819050919050565b612a5581612a42565b8114612a6057600080fd5b50565b600081359050612a7281612a4c565b92915050565b600060ff82169050919050565b612a8e81612a78565b8114612a9957600080fd5b50565b600081359050612aab81612a85565b92915050565b60008060008060008060c08789031215612ace57612acd6128a3565b5b6000612adc89828a016128c4565b9650506020612aed89828a016128c4565b9550506040612afe89828a016128c4565b9450506060612b0f89828a01612a63565b9350506080612b2089828a01612a63565b92505060a0612b3189828a01612a9c565b9150509295509295509295565b6000612b4982612932565b9050919050565b612b5981612b3e565b8114612b6457600080fd5b50565b600081359050612b7681612b50565b92915050565b60008060408385031215612b9357612b926128a3565b5b6000612ba1858286016128c4565b9250506020612bb285828601612b67565b9150509250929050565b600080fd5b6000601f19601f8301169050919050565b7f4e487b7100000000000000000000000000000000000000000000000000000000600052604160045260246000fd5b612c0a82612bc1565b810181811067ffffffffffffffff82111715612c2957612c28612bd2565b5b80604052505050565b6000612c3c612899565b9050612c488282612c01565b919050565b600067ffffffffffffffff821115612c6857612c67612bd2565b5b602082029050602081019050919050565b600080fd5b6000612c91612c8c84612c4d565b612c32565b90508083825260208201905060208402830185811115612cb457612cb3612c79565b5b835b81811015612cdd5780612cc988826128c4565b845260208401935050602081019050612cb6565b5050509392505050565b600082601f830112612cfc57612cfb612bbc565b5b8135612d0c848260208601612c7e565b91505092915050565b60008060408385031215612d2c57612d2b6128a3565b5b600083013567ffffffffffffffff811115612d4a57612d496128a8565b5b612d5685828601612ce7565b925050602083013567ffffffffffffffff811115612d7757612d766128a8565b5b612d8385828601612ce7565b9150509250929050565b612d9681612952565b8114612da157600080fd5b50565b600081359050612db381612d8d565b92915050565b60008060408385031215612dd057612dcf6128a3565b5b6000612dde858286016128c4565b9250506020612def85828601612da4565b9150509250929050565b612e0281612b3e565b82525050565b6000602082019050612e1d6000830184612df9565b92915050565b600081519050919050565b600082825260208201905092915050565b60005b83811015612e5d578082015181840152602081019050612e42565b83811115612e6c576000848401525b50505050565b6000612e7d82612e23565b612e878185612e2e565b9350612e97818560208601612e3f565b612ea081612bc1565b840191505092915050565b60006020820190508181036000830152612ec58184612e72565b905092915050565b600060208284031215612ee357612ee26128a3565b5b6000612ef184828501612da4565b91505092915050565b600080fd5b600067ffffffffffffffff821115612f1a57612f19612bd2565b5b612f2382612bc1565b9050602081019050919050565b82818337600083830152505050565b6000612f52612f4d84612eff565b612c32565b905082815260208101848484011115612f6e57612f6d612efa565b5b612f79848285612f30565b509392505050565b600082601f830112612f9657612f95612bbc565b5b8135612fa6848260208601612f3f565b91505092915050565b60008060408385031215612fc657612fc56128a3565b5b600083013567ffffffffffffffff811115612fe457612fe36128a8565b5b612ff085828601612f81565b9250506020613001858286016128c4565b9150509250929050565b600060208284031215613021576130206128a3565b5b600061302f84828501612b67565b91505092915050565b7f7365742044414f20636f737420616e6420707269636520646174610000000000600082015250565b600061306e601b83612e2e565b915061307982613038565b602082019050919050565b6000602082019050818103600083015261309d81613061565b9050919050565b6130ad81612a42565b82525050565b6130bc81612a78565b82525050565b600060e0820190506130d7600083018a612df9565b6130e46020830189612a18565b6130f16040830188612a18565b6130fe6060830187612a18565b61310b60808301866130a4565b61311860a08301856130a4565b61312560c08301846130b3565b98975050505050505050565b60008115159050919050565b61314681613131565b811461315157600080fd5b50565b6000815190506131638161313d565b92915050565b60006020828403121561317f5761317e6128a3565b5b600061318d84828501613154565b91505092915050565b7f7369676e6572206d757374206265207365727665720000000000000000000000600082015250565b60006131cc601583612e2e565b91506131d782613196565b602082019050919050565b600060208201905081810360008301526131fb816131bf565b9050919050565b600081519050613211816128ad565b92915050565b600061322a61322584612c4d565b612c32565b9050808382526020820190506020840283018581111561324d5761324c612c79565b5b835b8181101561327657806132628882613202565b84526020840193505060208101905061324f565b5050509392505050565b600082601f83011261329557613294612bbc565b5b81516132a5848260208601613217565b91505092915050565b6000602082840312156132c4576132c36128a3565b5b600082015167ffffffffffffffff8111156132e2576132e16128a8565b5b6132ee84828501613280565b91505092915050565b7f4e487b7100000000000000000000000000000000000000000000000000000000600052601160045260246000fd5b6000613331826127db565b915061333c836127db565b92508282101561334f5761334e6132f7565b5b828203905092915050565b7f4e487b7100000000000000000000000000000000000000000000000000000000600052603260045260246000fd5b7f6e6f74206d6f737420726563656e7420746f6b656e0000000000000000000000600082015250565b60006133bf601583612e2e565b91506133ca82613389565b602082019050919050565b600060208201905081810360008301526133ee816133b2565b9050919050565b6000613400826127db565b915061340b836127db565b9250817fffffffffffffffffffffffffffffffffffffffffffffffffffffffffffffffff0483118215151615613444576134436132f7565b5b828202905092915050565b600061345a826127db565b9150613465836127db565b9250827fffffffffffffffffffffffffffffffffffffffffffffffffffffffffffffffff0382111561349a576134996132f7565b5b828201905092915050565b7f63616e6e6f74206368616e6765206c6576656c206f6e63652061207061796f7560008201527f74206973206d6164650000000000000000000000000000000000000000000000602082015250565b6000613501602983612e2e565b915061350c826134a5565b604082019050919050565b60006020820190508181036000830152613530816134f4565b9050919050565b7f63616e206f6e6c792065786368616e676520676f696e6720646f776e206c657660008201527f656c732100000000000000000000000000000000000000000000000000000000602082015250565b6000613593602483612e2e565b915061359e82613537565b604082019050919050565b600060208201905081810360008301526135c281613586565b9050919050565b7f696e737566666963656e74207061796d656e7400000000000000000000000000600082015250565b60006135ff601383612e2e565b915061360a826135c9565b602082019050919050565b6000602082019050818103600083015261362e816135f2565b9050919050565b600081905092915050565b50565b6000613650600083613635565b915061365b82613640565b600082019050919050565b600061367182613643565b9150819050919050565b7f7472616e73616374696f6e20756e7375636365737366756c0000000000000000600082015250565b60006136b1601883612e2e565b91506136bc8261367b565b602082019050919050565b600060208201905081810360008301526136e0816136a4565b9050919050565b7f4f776e61626c653a2063616c6c6572206973206e6f7420746865206f776e6572600082015250565b600061371d602083612e2e565b9150613728826136e7565b602082019050919050565b6000602082019050818103600083015261374c81613710565b9050919050565b7f616c7265616479206d656d6265727320666f72207468697320726f756e640000600082015250565b6000613789601e83612e2e565b915061379482613753565b602082019050919050565b600060208201905081810360008301526137b88161377c565b9050919050565b7f6e6f20636f737473000000000000000000000000000000000000000000000000600082015250565b60006137f5600883612e2e565b9150613800826137bf565b602082019050919050565b60006020820190508181036000830152613824816137e8565b9050919050565b7f756e657175616c20617272617973000000000000000000000000000000000000600082015250565b6000613861600e83612e2e565b915061386c8261382b565b602082019050919050565b6000602082019050818103600083015261389081613854565b9050919050565b60006138a282612a78565b915060ff8214156138b6576138b56132f7565b5b600182019050919050565b7f696e76616c696420636f737473206f7220726174696e67730000000000000000600082015250565b60006138f7601883612e2e565b9150613902826138c1565b602082019050919050565b60006020820190508181036000830152613926816138ea565b9050919050565b7f696e73756666696369656e742066756e64730000000000000000000000000000600082015250565b6000613963601283612e2e565b915061396e8261392d565b602082019050919050565b6000602082019050818103600083015261399281613956565b9050919050565b7f6e6f742061206d656d626572206f662044414f00000000000000000000000000600082015250565b60006139cf601383612e2e565b91506139da82613999565b602082019050919050565b600060208201905081810360008301526139fe816139c2565b9050919050565b7f6d6178207061796f757420666f7220726f756e64206578636565646564000000600082015250565b6000613a3b601d83612e2e565b9150613a4682613a05565b602082019050919050565b60006020820190508181036000830152613a6a81613a2e565b9050919050565b7f4e487b7100000000000000000000000000000000000000000000000000000000600052601260045260246000fd5b6000613aab826127db565b9150613ab6836127db565b925082613ac657613ac5613a71565b5b828204905092915050565b7f7061796f7574206661696c656400000000000000000000000000000000000000600082015250565b6000613b07600d83612e2e565b9150613b1282613ad1565b602082019050919050565b60006020820190508181036000830152613b3681613afa565b9050919050565b7f4e487b7100000000000000000000000000000000000000000000000000000000600052602260045260246000fd5b60006002820490506001821680613b8457607f821691505b60208210811415613b9857613b97613b3d565b5b50919050565b7f6d757374206265206174206c65617374206f6e65206d656d62657220696e207460008201527f68652044414f0000000000000000000000000000000000000000000000000000602082015250565b6000613bfa602683612e2e565b9150613c0582613b9e565b604082019050919050565b60006020820190508181036000830152613c2981613bed565b9050919050565b7f7478206661696c65640000000000000000000000000000000000000000000000600082015250565b6000613c66600983612e2e565b9150613c7182613c30565b602082019050919050565b60006020820190508181036000830152613c9581613c59565b9050919050565b6000613ca7826127db565b91507fffffffffffffffffffffffffffffffffffffffffffffffffffffffffffffffff821415613cda57613cd96132f7565b5b600182019050919050565b7f617272206c656e67746873000000000000000000000000000000000000000000600082015250565b6000613d1b600b83612e2e565b9150613d2682613ce5565b602082019050919050565b60006020820190508181036000830152613d4a81613d0e565b9050919050565b7f4f776e61626c653a206e6577206f776e657220697320746865207a65726f206160008201527f6464726573730000000000000000000000000000000000000000000000000000602082015250565b6000613dad602683612e2e565b9150613db882613d51565b604082019050919050565b60006020820190508181036000830152613ddc81613da0565b905091905056fea2646970667358221220de5920b577a715600c518e41c2797eb8b6f6bd295781b571a4751117c55fb45f64736f6c63430008090033",
  "immutableReferences": {},
  "source": "// SPDX-License-Identifier: MIT\npragma solidity >=0.7.0 <0.9.0;\n\nimport \"@openzeppelin/contracts/utils/Counters.sol\";\nimport \"@openzeppelin/contracts/access/Ownable.sol\";\nimport \"./Verify.sol\";\nimport \"./InsuranceNFT.sol\";\n\n\ncontract InsuranceDAO is Ownable{\n    using Counters for Counters.Counter;\n    \n    Counters.Counter private _round;\n\n    uint256[] internal costSchedule;//costs for each driver NFT\n    uint256[] internal ratingAverageBreaks; // where the average breaks are\n    uint public payoutCap = 0.5 ether;//payout cap per block\n    uint public totalLevels; //current payout levels total\n    uint256[] internal penaltyLevels; //penalty and acceleration levels\n    uint256[] internal accLevels; //levels acceleration where penalites occur\n    mapping (uint => mapping (address => uint)) public roundPayouts; //deposit minus any payouts in current round\n    mapping (uint => mapping (address => uint)) public levelsEntered;//level of each driver originally for cost\n    mapping (uint => mapping (address => uint)) public paymentLevels;//level of each driver for payments\n    mapping (uint => string) public ratingLabels; //Labels for each level\n    mapping (uint => address payable[]) internal DAOMembers; // addresses currently in DAO\n    mapping (uint => mapping (address => uint)) public currentTokenIdForAddr;//current tokenId used by DAO member address\n    Verify verifyContract; //verifying contract\n    InsuranceNFT NFTInstance;//NFT contract\n\n    constructor(address _verifyAddress){\n        verifyContract = Verify(_verifyAddress);\n        _round.increment();\n    }\n\n    receive() payable external{\n\n    }\n\n    function addToDao (uint256 level, uint256 tokenId, uint256 timeStamp, bytes32 r, bytes32 s, uint8 v) public payable {\n        require(costSchedule.length >0 && penaltyLevels.length > 0 , \"set DAO cost and price data\");\n        require(verifyContract.driverDataVerify(_msgSender(), level, tokenId, timeStamp, r, s, v), \"signer must be server\");\n        uint[] memory tokenIds = NFTInstance.getTokensByAddr(_msgSender());\n        require(tokenIds[tokenIds.length -1] == tokenId, \"not most recent token\");\n        uint256 rebate = 0;\n        uint256 priorLevel = 0;\n        uint256 newLevelPayout = (costSchedule.length -level)*2+2;\n        //existing members getting better rating\n        if(levelsEntered[_round.current()][_msgSender()] > 0){\n            require(roundPayouts[_round.current()][_msgSender()] == 0, \"cannot change level once a payout is made\");\n            priorLevel = levelsEntered[_round.current()][_msgSender()];\n            require (priorLevel > level, \"can only exchange going down levels!\");\n            levelsEntered[_round.current()][_msgSender()] = level;\n            paymentLevels[_round.current()][_msgSender()] = newLevelPayout;\n            rebate = costSchedule[priorLevel-1] - costSchedule[level-1];\n        }\n        //new members\n        else{\n        require(msg.value >= costSchedule[level-1], \"insufficent payment\");\n        levelsEntered[_round.current()][_msgSender()] = level;\n        paymentLevels[_round.current()][_msgSender()] = newLevelPayout;\n        DAOMembers[_round.current()].push(payable(_msgSender()));\n        }\n        currentTokenIdForAddr[_round.current()][_msgSender()] = tokenId;\n        totalLevels += newLevelPayout;\n        if(rebate > 0){\n            (bool success, ) = payable(_msgSender()).call{value : msg.value + rebate}(\"\");\n            require(success, \"transaction unsuccessful\");\n        }\n        else if(msg.value > costSchedule[level-1]){\n            (bool success, ) = payable(_msgSender()).call{value : msg.value - costSchedule[level-1]}(\"\");\n            require(success, \"transaction unsuccessful\");\n        }\n    }\n\n    function setCostSchedule(uint[] memory costs, uint[] memory _ratingBreaks) public onlyOwner{\n        require(DAOMembers[_round.current()].length == 0, \"already members for this round\");\n        require(costs.length >= 1, \"no costs\");\n        require(costs.length == _ratingBreaks.length, \"unequal arrays\");\n        uint256 maxCost = 0;\n        uint256 maxRating =0;\n        bool validCosts = true;\n        for(uint8 i=0; i<costs.length; i++){\n            if(costs[i] < maxCost || _ratingBreaks[i] <= maxRating){\n                validCosts = false;\n            }\n            else{\n                maxCost = costs[i];\n                maxRating = _ratingBreaks[i];\n            }\n        }\n        require(validCosts , \"invalid costs or ratings\");\n        costSchedule = costs;\n        ratingAverageBreaks = _ratingBreaks;\n    }\n\n    function setPenalties(uint[] memory levels, uint[] memory penalties) public onlyOwner{\n        require(DAOMembers[_round.current()].length == 0, \"already members for this round\");\n        require(levels.length == penalties.length, \"arr lengths\");\n        uint[] memory tempLevels = new uint[](levels.length);\n        uint[] memory tempPenalties = new uint[](levels.length);\n\n        for (uint8 i=0; i<levels.length; i++){\n            tempLevels[i] = levels[i];\n            tempPenalties[i] = penalties[i]; \n        }\n        accLevels = tempLevels;\n        penaltyLevels = tempPenalties;\n    }\n\n    function setNFTContract(address payable NFTContract) public onlyOwner{\n        NFTInstance = InsuranceNFT(NFTContract);\n    }\n\n    function setLabel (string memory newLabel, uint index) public onlyOwner{\n        ratingLabels[index] = newLabel;\n    }\n\n    function getPenaltyLevels() public view returns(uint[] memory){\n        return penaltyLevels;\n    }\n\n    function getAccLevels() public view returns(uint[] memory){\n        return accLevels;\n    }\n\n    function getCosts() public view returns(uint[] memory){\n        return costSchedule;\n    }\n\n    function getRatings() public view returns(uint[] memory){\n        return ratingAverageBreaks;\n    }\n\n    function getCurrentRound() public view returns(uint){\n        uint currentRound = _round.current();\n        return currentRound;\n    }\n\n    function getDAOMembers(uint round) public view returns(address payable[] memory){\n        return DAOMembers[round];\n    }\n\n    //logic for making a payout from DAO for auto claim\n    function makePayment(uint amount, address payable _payee) public onlyOwner{\n        require(address(this).balance >= amount, \"insufficient funds\");\n        require(currentTokenIdForAddr[_round.current()][_payee] != 0 , \"not a member of DAO\");\n        require(roundPayouts[_round.current()][_payee] + amount <= payoutCap, \"max payout for round exceeded\");\n        uint prevPayout = roundPayouts[_round.current()][_payee];\n        roundPayouts[_round.current()][_payee] += amount;\n        if(roundPayouts[_round.current()][_payee] >= costSchedule[levelsEntered[_round.current()][_payee]]){\n            totalLevels -= paymentLevels[_round.current()][_payee];\n            paymentLevels[_round.current()][_payee] = 0;\n        }\n        else if(roundPayouts[_round.current()][_payee] >= costSchedule[levelsEntered[_round.current()][_payee]]/2){\n            if(prevPayout < costSchedule[levelsEntered[_round.current()][_payee]]/2){\n                totalLevels -= paymentLevels[_round.current()][_payee]/2;\n                paymentLevels[_round.current()][_payee]/=2;\n            }\n        }\n        (bool success, ) = _payee.call{value : amount}(\"\");\n        require(success, \"payout failed\");\n    }\n\n    //Pay back rewards to DAO\n    function makeDAOPayout() public onlyOwner {\n        address payable[] memory currentMembers = DAOMembers[_round.current()];\n        require(currentMembers.length > 0, \"must be at least one member in the DAO\");\n        uint basePayout = address(this).balance/totalLevels;\n        address payable[] memory members = DAOMembers[_round.current()];\n        for(uint i = 0; i<members.length; i++){\n            (bool success, ) = members[i].call{value : paymentLevels[_round.current()][members[i]]*basePayout}(\"\");\n            require(success, \"tx failed\");\n        }\n        _round.increment();\n    }\n}",
  "sourcePath": "/home/jpick713/BlockChain_Apps/iotexPebbleDAO/contracts/InsuranceDAO.sol",
  "compiler": {
    "name": "solc",
    "version": "0.8.9+commit.e5eed63a.Emscripten.clang"
  },
  "schemaVersion": "3.4.2",
  "updatedAt": "2021-10-31T02:58:33.289Z",
  "networkType": "ethereum",
  "devdoc": {
    "kind": "dev",
    "methods": {
      "owner()": {
        "details": "Returns the address of the current owner."
      },
      "renounceOwnership()": {
        "details": "Leaves the contract without owner. It will not be possible to call `onlyOwner` functions anymore. Can only be called by the current owner. NOTE: Renouncing ownership will leave the contract without an owner, thereby removing any functionality that is only available to the owner."
      },
      "transferOwnership(address)": {
        "details": "Transfers ownership of the contract to a new account (`newOwner`). Can only be called by the current owner."
      }
    },
    "version": 1
  },
  "userdoc": {
    "kind": "user",
    "methods": {},
    "version": 1
  }
}