{
  "contractName": "Verify",
  "abi": [
    {
      "inputs": [
        {
          "internalType": "address",
          "name": "_serverAddress",
          "type": "address"
        }
      ],
      "stateMutability": "nonpayable",
      "type": "constructor"
    },
    {
      "anonymous": false,
      "inputs": [
        {
          "indexed": true,
          "internalType": "address",
          "name": "previousOwner",
          "type": "address"
        },
        {
          "indexed": true,
          "internalType": "address",
          "name": "newOwner",
          "type": "address"
        }
      ],
      "name": "OwnershipTransferred",
      "type": "event"
    },
    {
      "inputs": [],
      "name": "DAOAddress",
      "outputs": [
        {
          "internalType": "address",
          "name": "",
          "type": "address"
        }
      ],
      "stateMutability": "view",
      "type": "function",
      "constant": true
    },
    {
      "inputs": [],
      "name": "NFTAddress",
      "outputs": [
        {
          "internalType": "address",
          "name": "",
          "type": "address"
        }
      ],
      "stateMutability": "view",
      "type": "function",
      "constant": true
    },
    {
      "inputs": [],
      "name": "checkHash",
      "outputs": [
        {
          "internalType": "bytes32",
          "name": "",
          "type": "bytes32"
        }
      ],
      "stateMutability": "view",
      "type": "function",
      "constant": true
    },
    {
      "inputs": [],
      "name": "finalHash",
      "outputs": [
        {
          "internalType": "bytes32",
          "name": "",
          "type": "bytes32"
        }
      ],
      "stateMutability": "view",
      "type": "function",
      "constant": true
    },
    {
      "inputs": [
        {
          "internalType": "address",
          "name": "",
          "type": "address"
        }
      ],
      "name": "nonces",
      "outputs": [
        {
          "internalType": "uint256",
          "name": "",
          "type": "uint256"
        }
      ],
      "stateMutability": "view",
      "type": "function",
      "constant": true
    },
    {
      "inputs": [],
      "name": "owner",
      "outputs": [
        {
          "internalType": "address",
          "name": "",
          "type": "address"
        }
      ],
      "stateMutability": "view",
      "type": "function",
      "constant": true
    },
    {
      "inputs": [],
      "name": "renounceOwnership",
      "outputs": [],
      "stateMutability": "nonpayable",
      "type": "function"
    },
    {
      "inputs": [],
      "name": "serverAddress",
      "outputs": [
        {
          "internalType": "address",
          "name": "",
          "type": "address"
        }
      ],
      "stateMutability": "view",
      "type": "function",
      "constant": true
    },
    {
      "inputs": [
        {
          "internalType": "address",
          "name": "",
          "type": "address"
        }
      ],
      "name": "serverAddresses",
      "outputs": [
        {
          "internalType": "bool",
          "name": "",
          "type": "bool"
        }
      ],
      "stateMutability": "view",
      "type": "function",
      "constant": true
    },
    {
      "inputs": [
        {
          "internalType": "address",
          "name": "newOwner",
          "type": "address"
        }
      ],
      "name": "transferOwnership",
      "outputs": [],
      "stateMutability": "nonpayable",
      "type": "function"
    },
    {
      "inputs": [
        {
          "internalType": "address",
          "name": "_mintAddress",
          "type": "address"
        },
        {
          "internalType": "string",
          "name": "_tokenURI",
          "type": "string"
        },
        {
          "internalType": "uint256",
          "name": "_tokenId",
          "type": "uint256"
        },
        {
          "internalType": "uint256",
          "name": "timeStamp",
          "type": "uint256"
        },
        {
          "internalType": "bytes32",
          "name": "r",
          "type": "bytes32"
        },
        {
          "internalType": "bytes32",
          "name": "s",
          "type": "bytes32"
        },
        {
          "internalType": "uint8",
          "name": "v",
          "type": "uint8"
        }
      ],
      "name": "metaDataVerify",
      "outputs": [
        {
          "internalType": "bool",
          "name": "",
          "type": "bool"
        }
      ],
      "stateMutability": "nonpayable",
      "type": "function"
    },
    {
      "inputs": [
        {
          "internalType": "address",
          "name": "ownerAddress",
          "type": "address"
        },
        {
          "internalType": "uint256",
          "name": "level",
          "type": "uint256"
        },
        {
          "internalType": "uint256",
          "name": "tokenId",
          "type": "uint256"
        },
        {
          "internalType": "uint256",
          "name": "timeStamp",
          "type": "uint256"
        },
        {
          "internalType": "bytes32",
          "name": "r",
          "type": "bytes32"
        },
        {
          "internalType": "bytes32",
          "name": "s",
          "type": "bytes32"
        },
        {
          "internalType": "uint8",
          "name": "v",
          "type": "uint8"
        }
      ],
      "name": "driverDataVerify",
      "outputs": [
        {
          "internalType": "bool",
          "name": "",
          "type": "bool"
        }
      ],
      "stateMutability": "nonpayable",
      "type": "function"
    },
    {
      "inputs": [
        {
          "internalType": "address",
          "name": "_NFTAddress",
          "type": "address"
        }
      ],
      "name": "setNFTAddress",
      "outputs": [],
      "stateMutability": "nonpayable",
      "type": "function"
    },
    {
      "inputs": [
        {
          "internalType": "address",
          "name": "_DAOAddress",
          "type": "address"
        }
      ],
      "name": "setDAOAddress",
      "outputs": [],
      "stateMutability": "nonpayable",
      "type": "function"
    }
  ],
  "bytecode": "0x60806040523480156200001157600080fd5b5060405162001c0e38038062001c0e83398181016040528101906200003791906200022d565b620000576200004b620000f760201b60201c565b620000ff60201b60201c565b80600460006101000a81548173ffffffffffffffffffffffffffffffffffffffff021916908373ffffffffffffffffffffffffffffffffffffffff1602179055506001600760008373ffffffffffffffffffffffffffffffffffffffff1673ffffffffffffffffffffffffffffffffffffffff16815260200190815260200160002060006101000a81548160ff021916908315150217905550506200025f565b600033905090565b60008060009054906101000a900473ffffffffffffffffffffffffffffffffffffffff169050816000806101000a81548173ffffffffffffffffffffffffffffffffffffffff021916908373ffffffffffffffffffffffffffffffffffffffff1602179055508173ffffffffffffffffffffffffffffffffffffffff168173ffffffffffffffffffffffffffffffffffffffff167f8be0079c531659141344cd1fd0a4f28419497f9722a3daafe3b4186f6b6457e060405160405180910390a35050565b600080fd5b600073ffffffffffffffffffffffffffffffffffffffff82169050919050565b6000620001f582620001c8565b9050919050565b6200020781620001e8565b81146200021357600080fd5b50565b6000815190506200022781620001fc565b92915050565b600060208284031215620002465762000245620001c3565b5b6000620002568482850162000216565b91505092915050565b61199f806200026f6000396000f3fe608060405234801561001057600080fd5b50600436106100ea5760003560e01c80639a40f4791161008c578063db420fe311610066578063db420fe314610239578063dccc471814610257578063ec49378114610275578063f2fde38b146102a5576100ea565b80639a40f479146101bb578063bef688aa146101eb578063d392eab11461021b576100ea565b8063715018a6116100c8578063715018a6146101475780637ecebe00146101515780638da5cb5b14610181578063965afa891461019f576100ea565b806319483cd1146100ef578063310c87cc1461010d57806369d037381461012b575b600080fd5b6100f76102c1565b6040516101049190610f07565b60405180910390f35b6101156102c7565b6040516101229190610f63565b60405180910390f35b61014560048036038101906101409190610fbe565b6102ed565b005b61014f61041d565b005b61016b60048036038101906101669190610fbe565b6104a5565b6040516101789190611004565b60405180910390f35b6101896104bd565b6040516101969190610f63565b60405180910390f35b6101b960048036038101906101b49190610fbe565b6104e6565b005b6101d560048036038101906101d091906110b0565b610616565b6040516101e2919061116d565b60405180910390f35b610205600480360381019061020091906112ce565b610875565b604051610212919061116d565b60405180910390f35b610223610ad4565b6040516102309190610f63565b60405180910390f35b610241610afa565b60405161024e9190610f63565b60405180910390f35b61025f610b20565b60405161026c9190610f07565b60405180910390f35b61028f600480360381019061028a9190610fbe565b610b26565b60405161029c919061116d565b60405180910390f35b6102bf60048036038101906102ba9190610fbe565b610b46565b005b60025481565b600560009054906101000a900473ffffffffffffffffffffffffffffffffffffffff1681565b6102f5610c3e565b73ffffffffffffffffffffffffffffffffffffffff166103136104bd565b73ffffffffffffffffffffffffffffffffffffffff1614610369576040517f08c379a0000000000000000000000000000000000000000000000000000000008152600401610360906113e9565b60405180910390fd5b600073ffffffffffffffffffffffffffffffffffffffff168173ffffffffffffffffffffffffffffffffffffffff1614156103d9576040517f08c379a00000000000000000000000000000000000000000000000000000000081526004016103d090611455565b60405180910390fd5b80600560006101000a81548173ffffffffffffffffffffffffffffffffffffffff021916908373ffffffffffffffffffffffffffffffffffffffff16021790555050565b610425610c3e565b73ffffffffffffffffffffffffffffffffffffffff166104436104bd565b73ffffffffffffffffffffffffffffffffffffffff1614610499576040517f08c379a0000000000000000000000000000000000000000000000000000000008152600401610490906113e9565b60405180910390fd5b6104a36000610c46565b565b60016020528060005260406000206000915090505481565b60008060009054906101000a900473ffffffffffffffffffffffffffffffffffffffff16905090565b6104ee610c3e565b73ffffffffffffffffffffffffffffffffffffffff1661050c6104bd565b73ffffffffffffffffffffffffffffffffffffffff1614610562576040517f08c379a0000000000000000000000000000000000000000000000000000000008152600401610559906113e9565b60405180910390fd5b600073ffffffffffffffffffffffffffffffffffffffff168173ffffffffffffffffffffffffffffffffffffffff1614156105d2576040517f08c379a00000000000000000000000000000000000000000000000000000000081526004016105c990611455565b60405180910390fd5b80600660006101000a81548173ffffffffffffffffffffffffffffffffffffffff021916908373ffffffffffffffffffffffffffffffffffffffff16021790555050565b6000600660009054906101000a900473ffffffffffffffffffffffffffffffffffffffff1673ffffffffffffffffffffffffffffffffffffffff16610659610c3e565b73ffffffffffffffffffffffffffffffffffffffff16146106af576040517f08c379a00000000000000000000000000000000000000000000000000000000081526004016106a6906114c1565b60405180910390fd5b60006106bd89898989610d0a565b905060006001826040516020016106d49190611559565b604051602081830303815290604052805190602001208588886040516000815260200160405260405161070a949392919061158e565b6020604051602081039080840390855afa15801561072c573d6000803e3d6000fd5b505050602060405103519050600760008273ffffffffffffffffffffffffffffffffffffffff1673ffffffffffffffffffffffffffffffffffffffff16815260200190815260200160002060009054906101000a900460ff166107c4576040517f08c379a00000000000000000000000000000000000000000000000000000000081526004016107bb9061161f565b60405180910390fd5b600160008b73ffffffffffffffffffffffffffffffffffffffff1673ffffffffffffffffffffffffffffffffffffffff16815260200190815260200160002060008154809291906108149061166e565b9190505550600760008273ffffffffffffffffffffffffffffffffffffffff1673ffffffffffffffffffffffffffffffffffffffff16815260200190815260200160002060009054906101000a900460ff1692505050979650505050505050565b6000600560009054906101000a900473ffffffffffffffffffffffffffffffffffffffff1673ffffffffffffffffffffffffffffffffffffffff166108b8610c3e565b73ffffffffffffffffffffffffffffffffffffffff161461090e576040517f08c379a000000000000000000000000000000000000000000000000000000000815260040161090590611703565b60405180910390fd5b600061091c89898989610dfc565b905060006001826040516020016109339190611559565b6040516020818303038152906040528051906020012085888860405160008152602001604052604051610969949392919061158e565b6020604051602081039080840390855afa15801561098b573d6000803e3d6000fd5b505050602060405103519050600760008273ffffffffffffffffffffffffffffffffffffffff1673ffffffffffffffffffffffffffffffffffffffff16815260200190815260200160002060009054906101000a900460ff16610a23576040517f08c379a0000000000000000000000000000000000000000000000000000000008152600401610a1a9061161f565b60405180910390fd5b600160008b73ffffffffffffffffffffffffffffffffffffffff1673ffffffffffffffffffffffffffffffffffffffff1681526020019081526020016000206000815480929190610a739061166e565b9190505550600760008273ffffffffffffffffffffffffffffffffffffffff1673ffffffffffffffffffffffffffffffffffffffff16815260200190815260200160002060009054906101000a900460ff1692505050979650505050505050565b600660009054906101000a900473ffffffffffffffffffffffffffffffffffffffff1681565b600460009054906101000a900473ffffffffffffffffffffffffffffffffffffffff1681565b60035481565b60076020528060005260406000206000915054906101000a900460ff1681565b610b4e610c3e565b73ffffffffffffffffffffffffffffffffffffffff16610b6c6104bd565b73ffffffffffffffffffffffffffffffffffffffff1614610bc2576040517f08c379a0000000000000000000000000000000000000000000000000000000008152600401610bb9906113e9565b60405180910390fd5b600073ffffffffffffffffffffffffffffffffffffffff168173ffffffffffffffffffffffffffffffffffffffff161415610c32576040517f08c379a0000000000000000000000000000000000000000000000000000000008152600401610c2990611795565b60405180910390fd5b610c3b81610c46565b50565b600033905090565b60008060009054906101000a900473ffffffffffffffffffffffffffffffffffffffff169050816000806101000a81548173ffffffffffffffffffffffffffffffffffffffff021916908373ffffffffffffffffffffffffffffffffffffffff1602179055508173ffffffffffffffffffffffffffffffffffffffff168173ffffffffffffffffffffffffffffffffffffffff167f8be0079c531659141344cd1fd0a4f28419497f9722a3daafe3b4186f6b6457e060405160405180910390a35050565b6000600160008673ffffffffffffffffffffffffffffffffffffffff1673ffffffffffffffffffffffffffffffffffffffff168152602001908152602001600020548530848787604051602001610d669695949392919061181e565b60405160208183030381529060405280519060200120600281905550600160008673ffffffffffffffffffffffffffffffffffffffff1673ffffffffffffffffffffffffffffffffffffffff168152602001908152602001600020548530848787604051602001610ddc9695949392919061181e565b604051602081830303815290604052805190602001209050949350505050565b6000600160008673ffffffffffffffffffffffffffffffffffffffff1673ffffffffffffffffffffffffffffffffffffffff168152602001908152602001600020548530848787604051602001610e58969594939291906118fd565b60405160208183030381529060405280519060200120600281905550600160008673ffffffffffffffffffffffffffffffffffffffff1673ffffffffffffffffffffffffffffffffffffffff168152602001908152602001600020548530848787604051602001610ece969594939291906118fd565b604051602081830303815290604052805190602001209050949350505050565b6000819050919050565b610f0181610eee565b82525050565b6000602082019050610f1c6000830184610ef8565b92915050565b600073ffffffffffffffffffffffffffffffffffffffff82169050919050565b6000610f4d82610f22565b9050919050565b610f5d81610f42565b82525050565b6000602082019050610f786000830184610f54565b92915050565b6000604051905090565b600080fd5b600080fd5b610f9b81610f42565b8114610fa657600080fd5b50565b600081359050610fb881610f92565b92915050565b600060208284031215610fd457610fd3610f88565b5b6000610fe284828501610fa9565b91505092915050565b6000819050919050565b610ffe81610feb565b82525050565b60006020820190506110196000830184610ff5565b92915050565b61102881610feb565b811461103357600080fd5b50565b6000813590506110458161101f565b92915050565b61105481610eee565b811461105f57600080fd5b50565b6000813590506110718161104b565b92915050565b600060ff82169050919050565b61108d81611077565b811461109857600080fd5b50565b6000813590506110aa81611084565b92915050565b600080600080600080600060e0888a0312156110cf576110ce610f88565b5b60006110dd8a828b01610fa9565b97505060206110ee8a828b01611036565b96505060406110ff8a828b01611036565b95505060606111108a828b01611036565b94505060806111218a828b01611062565b93505060a06111328a828b01611062565b92505060c06111438a828b0161109b565b91505092959891949750929550565b60008115159050919050565b61116781611152565b82525050565b6000602082019050611182600083018461115e565b92915050565b600080fd5b600080fd5b6000601f19601f8301169050919050565b7f4e487b7100000000000000000000000000000000000000000000000000000000600052604160045260246000fd5b6111db82611192565b810181811067ffffffffffffffff821117156111fa576111f96111a3565b5b80604052505050565b600061120d610f7e565b905061121982826111d2565b919050565b600067ffffffffffffffff821115611239576112386111a3565b5b61124282611192565b9050602081019050919050565b82818337600083830152505050565b600061127161126c8461121e565b611203565b90508281526020810184848401111561128d5761128c61118d565b5b61129884828561124f565b509392505050565b600082601f8301126112b5576112b4611188565b5b81356112c584826020860161125e565b91505092915050565b600080600080600080600060e0888a0312156112ed576112ec610f88565b5b60006112fb8a828b01610fa9565b975050602088013567ffffffffffffffff81111561131c5761131b610f8d565b5b6113288a828b016112a0565b96505060406113398a828b01611036565b955050606061134a8a828b01611036565b945050608061135b8a828b01611062565b93505060a061136c8a828b01611062565b92505060c061137d8a828b0161109b565b91505092959891949750929550565b600082825260208201905092915050565b7f4f776e61626c653a2063616c6c6572206973206e6f7420746865206f776e6572600082015250565b60006113d360208361138c565b91506113de8261139d565b602082019050919050565b60006020820190508181036000830152611402816113c6565b9050919050565b7f63616e277420736574206173207a65726f206164647265737300000000000000600082015250565b600061143f60198361138c565b915061144a82611409565b602082019050919050565b6000602082019050818103600083015261146e81611432565b9050919050565b7f6e6f742063616c6c65642062792044414f20636f6e7472616374000000000000600082015250565b60006114ab601a8361138c565b91506114b682611475565b602082019050919050565b600060208201905081810360008301526114da8161149e565b9050919050565b600081905092915050565b7f19457468657265756d205369676e6564204d6573736167653a0a333200000000600082015250565b6000611522601c836114e1565b915061152d826114ec565b601c82019050919050565b6000819050919050565b61155361154e82610eee565b611538565b82525050565b600061156482611515565b91506115708284611542565b60208201915081905092915050565b61158881611077565b82525050565b60006080820190506115a36000830187610ef8565b6115b0602083018661157f565b6115bd6040830185610ef8565b6115ca6060830184610ef8565b95945050505050565b7f5349474e4552204d555354204245205345525645520000000000000000000000600082015250565b600061160960158361138c565b9150611614826115d3565b602082019050919050565b60006020820190508181036000830152611638816115fc565b9050919050565b7f4e487b7100000000000000000000000000000000000000000000000000000000600052601160045260246000fd5b600061167982610feb565b91507fffffffffffffffffffffffffffffffffffffffffffffffffffffffffffffffff8214156116ac576116ab61163f565b5b600182019050919050565b7f6e6f742063616c6c6564206279204e465420636f6e7472616374000000000000600082015250565b60006116ed601a8361138c565b91506116f8826116b7565b602082019050919050565b6000602082019050818103600083015261171c816116e0565b9050919050565b7f4f776e61626c653a206e6577206f776e657220697320746865207a65726f206160008201527f6464726573730000000000000000000000000000000000000000000000000000602082015250565b600061177f60268361138c565b915061178a82611723565b604082019050919050565b600060208201905081810360008301526117ae81611772565b9050919050565b6000819050919050565b6117d06117cb82610feb565b6117b5565b82525050565b60008160601b9050919050565b60006117ee826117d6565b9050919050565b6000611800826117e3565b9050919050565b61181861181382610f42565b6117f5565b82525050565b600061182a82896117bf565b60208201915061183a8288611807565b60148201915061184a8287611807565b60148201915061185a82866117bf565b60208201915061186a82856117bf565b60208201915061187a82846117bf565b602082019150819050979650505050505050565b600081519050919050565b60005b838110156118b757808201518184015260208101905061189c565b838111156118c6576000848401525b50505050565b60006118d78261188e565b6118e181856114e1565b93506118f1818560208601611899565b80840191505092915050565b600061190982896117bf565b6020820191506119198288611807565b6014820191506119298287611807565b60148201915061193982866117bf565b60208201915061194982856118cc565b915061195582846117bf565b60208201915081905097965050505050505056fea2646970667358221220371aaeb63109f78e7665bcadf82c043d450500b9927f9dea2daf10124a3097da64736f6c63430008090033",
  "immutableReferences": {},
  "source": "// SPDX-License-Identifier: MIT\npragma solidity >=0.7.0 <0.9.0;\n\nimport \"@openzeppelin/contracts/access/Ownable.sol\";\n//import '@openzeppelin/contracts/utils/cryptography/ECDSA.sol';\n\ncontract Verify is Ownable{\n    //using ECDSA for bytes32;\n   \n   mapping (address => uint) public nonces;\n   bytes32 public checkHash;\n   bytes32 public finalHash;\n   address public serverAddress;\n   address public NFTAddress;\n   address public DAOAddress;\n   mapping (address => bool) public serverAddresses;\n  \n  \n  constructor(address _serverAddress) public {\n    serverAddress = _serverAddress;\n    serverAddresses[_serverAddress] = true;\n  }\n  \n  function getHash(address _mintAddress, string memory _tokenURI, uint256 _tokenId, uint256 _timeStamp) internal returns (bytes32) {\n      checkHash = keccak256(abi.encodePacked(nonces[_mintAddress],_mintAddress, address(this), _timeStamp, _tokenURI, _tokenId));\n    return keccak256(abi.encodePacked(nonces[_mintAddress],_mintAddress, address(this), _timeStamp, _tokenURI, _tokenId));\n  }\n\n  function getDriverHash(address _mintAddress, uint256 level, uint256 _tokenId, uint256 _timeStamp) internal returns (bytes32) {\n      checkHash = keccak256(abi.encodePacked(nonces[_mintAddress],_mintAddress, address(this), _timeStamp, level, _tokenId));\n    return keccak256(abi.encodePacked(nonces[_mintAddress],_mintAddress, address(this), _timeStamp, level, _tokenId));\n  }\n\n  function metaDataVerify(address _mintAddress, string memory _tokenURI, uint256 _tokenId, uint256 timeStamp, bytes32 r, bytes32 s, uint8 v) public returns(bool) {\n    require(_msgSender() == NFTAddress, \"not called by NFT contract\");\n    bytes32 hashRecover = getHash(_mintAddress, _tokenURI, _tokenId, timeStamp);\n    address signer = ecrecover(keccak256(abi.encodePacked(\"\\x19Ethereum Signed Message:\\n32\", hashRecover)), v, r, s);\n    require( serverAddresses[signer],\"SIGNER MUST BE SERVER\"); \n    nonces[_mintAddress]++;\n    return serverAddresses[signer];\n  }\n\n  function driverDataVerify(address ownerAddress, uint256 level, uint256 tokenId, uint256 timeStamp, bytes32 r, bytes32 s, uint8 v) public returns(bool){\n    require(_msgSender() == DAOAddress, \"not called by DAO contract\");\n    bytes32 hashRecover = getDriverHash(ownerAddress, level, tokenId, timeStamp);\n    address signer = ecrecover(keccak256(abi.encodePacked(\"\\x19Ethereum Signed Message:\\n32\", hashRecover)), v, r, s);\n    require( serverAddresses[signer],\"SIGNER MUST BE SERVER\"); \n    nonces[ownerAddress]++;\n    return serverAddresses[signer];\n  }\n\n  function setNFTAddress (address _NFTAddress) public onlyOwner{\n    require(_NFTAddress != address(0), \"can't set as zero address\");\n    NFTAddress = _NFTAddress;\n  }\n\n  function setDAOAddress (address _DAOAddress) public onlyOwner{\n    require(_DAOAddress != address(0), \"can't set as zero address\");\n    DAOAddress = _DAOAddress;\n  }\n    \n}",
  "sourcePath": "/home/jpick713/BlockChain_Apps/iotexPebbleDAO/contracts/Verify.sol",
  "compiler": {
    "name": "solc",
    "version": "0.8.9+commit.e5eed63a.Emscripten.clang"
  },
  "schemaVersion": "3.4.2",
  "updatedAt": "2021-10-31T02:58:33.267Z",
  "networkType": "ethereum",
  "devdoc": {
    "kind": "dev",
    "methods": {
      "owner()": {
        "details": "Returns the address of the current owner."
      },
      "renounceOwnership()": {
        "details": "Leaves the contract without owner. It will not be possible to call `onlyOwner` functions anymore. Can only be called by the current owner. NOTE: Renouncing ownership will leave the contract without an owner, thereby removing any functionality that is only available to the owner."
      },
      "transferOwnership(address)": {
        "details": "Transfers ownership of the contract to a new account (`newOwner`). Can only be called by the current owner."
      }
    },
    "version": 1
  },
  "userdoc": {
    "kind": "user",
    "methods": {},
    "version": 1
  }
}